:020000040800F2
:10000000C004002045010008B51F00087D1B000842
:10001000B11F0008D5070008AD200008000000004F
:10002000000000000000000000000000A120000807
:10003000D907000800000000B91F0008A52000082B
:100040005F0100085F0100085F0100085F01000810
:100050005F0100085F0100085F0100085F01000800
:100060005F0100085F0100085F0100085F010008F0
:100070005F0100085F0100085F0100085F010008E0
:100080005F0100085F0100085F0100085F010008D0
:100090005F0100085F0100085F0100085F010008C0
:1000A0005F0100085F0100085F0100085F010008B0
:1000B0005F0100085F0100085F0100085F010008A0
:1000C0005F0100085F0100085F0100085F01000890
:1000D0005F0100085F0100085F0100085F01000880
:1000E0005F0100085F0100085F0100085F01000870
:1000F0005F0100085F0100085F0100085F01000860
:100100005F0100085F0100085F0100085F0100084F
:100110005F0100085F0100085F0100085F0100083F
:100120005F0100085F0100085F0100085F0100082F
:10013000DFF80CD000F0A8FA00480047D1200008F2
:10014000C00400200648804706480047FEE7FEE757
:10015000FEE7FEE7FEE7FEE7FEE7FEE7FEE7FEE777
:10016000A92000083101000830B480EA010202F041
:10017000004530F0004221F0004013D090B1C30D93
:10018000D40DC2F31601C0F31600E41A41F40001C5
:1001900040F400027D34914201D3641C00E0490028
:1001A000002C02DA30BC002070474FF4000000231E
:1001B000914201D3891A034340084FEA4101F7D124
:1001C00051B1914202D14FF0004105E002D24FF00F
:1001D000010101E06FF0010103EBC450284430BC81
:1001E00000F063B8C10F80EAE0700844CA079623A4
:1001F000002100F063B800F0004230F000400AD067
:10020000C10D01F56071C0F3160042EA0151C20848
:1002100040071143704700200146704730B50B4638
:10022000014600202022012409E021FA02F59D4226
:1002300005D303FA02F5491B04FA02F52844151EFA
:10024000A2F10102F1DC30BD2DE9F05F054600208E
:1002500092469B4688460646814640241BE0284637
:1002600041464746224600F036FA53465A46C01ADF
:10027000914110D311461846224600F01DFA2D1A5E
:1002800067EB01084F4622460120002100F014FAD6
:1002900017EB00094E41201EA4F10104DFDC4846A3
:1002A00031462A464346BDE8F09F0029A8BF704763
:1002B000401C490008BF20F00100704710B4B0FA9C
:1002C00080FC00FA0CF050EA010404BF10BC704737
:1002D00049B1CCF1200421FA04F411FA0CF118BF51
:1002E000012121430843A3EB0C01CB1D4FEA006120
:1002F0004FEA102042BF002010BC704700EBC350F3
:1003000010440029A4BF10BC7047401C490008BF1E
:1003100020F0010010BC70472DE9FE4F804681EAB5
:100320000300C00F0C46009021F0004123F000456F
:10033000B8EB0200A94105D24046214690461C4632
:100340000B46024623F00040104347D0270DC7F369
:100350000A00C3F30A510290401A019040286BDA58
:10036000C3F3130040F4801B0098924620B1002391
:10037000D2EB030A63EB0B0B01985946C0F1400224
:10038000504600F099F906460D4650465946019AE6
:1003900000F0B1F910EB08006141002487EA115226
:1003A00084EAE7731A4340D0009A62B3019A012AA3
:1003B0004FEA075215DC001B61EB02014FF00042CF
:1003C00002EA0752CDE90042001C41F58011324695
:1003D0002B4600F0B1F903B0BDE8F08F404621464E
:1003E000F9E7001B61EB0201001C41F580130018C6
:1003F0005B412018A2F5001747EB030140EAD570D6
:10040000B6196D4111E06D084FEA360645EAC07530
:100410004FEA0752001B61EB0201001C41F58011FD
:1004200049084FEA30000019514132462B4603B0CB
:10043000BDE8F04F00F071B90098012240000023A0
:10044000D0EB020263EBE073009821464FEAE074C0
:10045000B8EB000061EB0401E9E783F000435BE7E0
:1004600081F0004158E72DE9FE4F81EA030404F0D2
:10047000004421F0004100944FF0000B23F00043B2
:1004800050EA01045ED052EA03045BD0C3F30A547D
:10049000C1F30A552C44A4F2F3340194A0FB025496
:1004A000C1F3130141F48011C3F3130343F4801328
:1004B00001FB024400FB034E840A970A44EA81547C
:1004C00047EA8357A4FB076802958D0A05FB078559
:1004D0004FEA932C04FB0C542705029D4FEA065863
:1004E00047EA1637B5EB08056EEB070C870E920E40
:1004F00047EA811742EA8312A7FB0201B6EB0B0120
:1005000064EB00042B0D43EA0C335E1844EB1C50E3
:10051000DA465146E7FB0201C5F313044FEA0B33F9
:1005200043EA14534FEA0432019C43EA0603A4F160
:100530000C040294009CCDE900B400F0FDF803B077
:10054000BDE8F08F00200146F9E72DE9F04D81EA82
:10055000030404F0004B21F0004514464FF0000A5C
:1005600023F0004150EA050220D054EA01021DD0D8
:10057000C5F30A570246C5F31303C1F31300C1F3D1
:100580000A5640F4801543F48013A7EB0608101BAD
:10059000D64608F2FD3873EB050002D308F10108D6
:1005A00001E092185B41B8F1000F03DA0020014628
:1005B000BDE8F08D00204FF48011064684460EE021
:1005C000171B73EB050705D3121B63EB05030643EB
:1005D0004CEA010C49084FEA300092185B4150EA9E
:1005E0000107EDD152EA030012D082EA040083EA47
:1005F0000501084305D0101BAB4106D201220023A0
:1006000006E000224FF0004302E06FF001025310B9
:100610001AEB06004CEB085110EB0A0041EB0B0102
:10062000BDE8F04D00F079B8C1F30A52C1F31301EF
:1006300040F2FF3341F480119A4202DA0020014671
:10064000704740F233439A42A2F2334202DC5242F4
:1006500000F041B800F030B830B5041E71F100046C
:1006600004DB4FF00044404264EB0101141E73F1BF
:10067000000405DB1C464FF00043524263EB0403C9
:10068000994208BF904230BD1CB509480090094806
:1006900001900546009C06E0E06840F0010394E804
:1006A000070098471034AC42F6D3FFF745FD000031
:1006B000142B0008342B0008202A04DB203A00FA0F
:1006C00002F1002070479140C2F1200320FA03F3A9
:1006D000194390407047202A04DB203A21FA02F0A7
:1006E0000021704721FA02F3D040C2F1200291406C
:1006F000084319467047202A06DBCB17203A41FAF7
:1007000002F043EAE07306E041FA02F3D040C2F19E
:100710002002914008431946704710B5141E73F12A
:10072000000408DA401C41F1000192185B411A43B1
:1007300001D120F0010010BD2DE9F04D92469B46FD
:1007400011B1B1FA81F202E0B0FA80F220329046A3
:10075000FFF7B2FF04460F4640EA0A0041EA0B01E8
:1007600053465A46084313D0114653EA010019D0A4
:10077000C8F140025046FFF7AEFF05460E46504610
:1007800059464246FFF798FF084305D0012004E090
:1007900020463946BDE8F08D0020054346EAE07664
:1007A0002C4337430A986305E40AA0EB08000022B3
:1007B000FD0A44EA47540A3002D500200146E9E721
:1007C000010510196941DDE9084500196941BDE8D5
:1007D000F04DA2E7FEE7000070470000EFF3108045
:1007E00072B600BFFEE70000B0B5044600F018F98D
:1007F000054640F20400C2F200000078611C18BFF8
:10080000044400BF00F00CF9401BA042FAD3B0BD75
:100810002DE9F04F82B00E68002E00F0EF80A0F1BD
:100820008042A2F58432870547EA922241F60047CA
:1008300040F2004EC4F201070625C4F2010EB84290
:1008400008BF052500244FF001080F234FF0000AD0
:100850004FF0000B052A38BF1546009509E000BF90
:100860000E680AF1010A36FA0AF204F1040400F0F3
:10087000C58008FA0AFC16EA0C09F1D04E684FF65A
:10088000FF72C1F21002964212DC122E56D8DFE837
:1008900006F0350B45495555555555555555555542
:1008A0005555554D510000BFD1F80CB046E000BF82
:1008B0004FF6FF72C1F2210296420FDC0022C1F214
:1008C000110296421AD00022C1F21202964215D0AD
:1008D0000022C1F22102964210D02FE00022C1F284
:1008E000220296420AD00022C1F23102964205D07D
:1008F0000022C1F23202964220D100BF8A684AB17A
:10090000012A14BFC0F814C0C0F810C04FF0080B83
:1009100014E000BF4FF0040B10E000BFCA6802F102
:10092000080B0BE04FF0000B08E000BFCA6802F1B3
:10093000040B03E0CA6802F10C0B00BF2246064616
:10094000B9F5807F24BF203A0436376803FA02F5F0
:10095000AF430BFA02F23A433260CA79D2067FF50E
:100960007FAF41F21807C4F202073A684FF6084316
:1009700042F001023A603A68CFF6FF7302F00102DA
:100980000192019A2AF0030272440F25D75804F00D
:100990000C06B540AF43009D05FA06F63743D75025
:1009A0004E6840F20C45F202DEF8082054BF22EAFD
:1009B000090242EA0902C4F20105CEF808202A68B9
:1009C000B70254BF22EA090242EA09022A60DEF8AD
:1009D0000420B70354BF22EA090242EA0902CEF812
:1009E00004200F23DEF80020F70354BF22EA090297
:1009F00042EA0902CEF8002032E700BF02B0BDE8AB
:100A0000F08F0000C26802EA0103914341EA03410A
:100A100001617047002A08BF0904016170470000A6
:100A200040F2B800C2F200000068704740F20400D3
:100A300040F2B801C2F20000C2F2000100780A6878
:100A4000104408607047000080B542F20000C4F214
:100A50000200016841F010010160032000F07AF803
:100A60000F2000F005F800F027F8002080BD0000FE
:100A700070B540F20406C2F2000640F2100132786E
:100A8000C2F200014FF47A730968B3FBF2F2044634
:100A9000B1FBF2F1084600F06FFE0F2C4FF001059C
:100AA00008D838B94FF0FF3021460022002500F069
:100AB00025F87460284670BD82B041F21800C4F277
:100AC00002000168022241F001010160016801F0A9
:100AD000010101910199416841F0805141604068F4
:100AE00000F08050009000980420C4F201000168DA
:100AF00062F31A61016002B07047000010B54EF653
:100B00000C5CCEF2000CDCF80030C3F3022E8EF049
:100B10000704042C28BF0424BEF103034FF0FF3E5A
:100B20000EFA04F438BF0023A14399400EFA03F3F0
:100B30009A43114300F00F0200F160430901043AA7
:100B400003F564436244002848BF02F10C031970A6
:100B500010BD00004EF60C51CEF200010A684FF6AF
:100B6000FF031A4060F30A2242F0806040F0FD70FB
:100B700008607047002804BF012070472DE9F0434A
:100B800081B042F20008C4F202080446D8F800001E
:100B90000D4600F0070088420CD2D8F8000020F083
:100BA00007002843C8F80000D8F8000000F007004C
:100BB000A8426CD1206841F204098107C4F20209FD
:100BC00017D5410705D5D9F8001041F4E061C9F8FF
:100BD0000010010705D5D9F8001041F46051C9F89B
:100BE0000010D9F80010A26821F0F0011143C9F8F3
:100BF0000010C00742D1D8F8000000F00700A8425A
:100C00000CD9D8F8000020F007002843C8F80000ED
:100C1000D8F8000000F00700A84238D1206841074A
:100C200007D5D9F80010E26821F4E0611143C9F852
:100C30000010000708D5D9F80000216920F46050A1
:100C400040EAC100C9F80000D9F8002002F00C0009
:100C5000082841F20020C0F27A0051D142F6D62392
:100C6000C2F38341C0F60003595CD2033CD440F682
:100C70000010C0F23D00484342E000BF6068022817
:100C80000AD001282AD159F8041C890308D401206C
:100C900001B0BDE8F08300BF59F8041C8901F6D506
:100CA000D9F8001021F003010843C9F80000FFF74C
:100CB000B7FE064641F28837D9F80000616800F0B7
:100CC0000C00B0EB810F96D0FFF7AAFE801BB84254
:100CD000F2D9032001B0BDE8F08300BF59F8041C2D
:100CE0008907D4D5DCE700BFD9F8002042F6D42329
:100CF000C2F34042C0F600039A5C4843B0FBF2F0F6
:100D0000D9F8001042F6BC22C1F30311C0F600026C
:100D1000515C40F2100220FA01F140F20800C2F2E8
:100D200000000068C2F200021160FFF7A1FE00207F
:100D300001B0BDE8F083000040F2100041F2040170
:100D4000C2F20000C4F202010068096842F6CC2237
:100D5000C1F30221C0F60002515CC8407047000098
:100D600040F2100041F20401C2F20000C4F202019C
:100D70000068096842F6CC22C1F3C221C0F6000225
:100D8000515CC84070470000002804BF0120704734
:100D90002DE9F04182B00446007841F20006C00718
:100DA000C4F202060CD0706800F00C00042840F079
:100DB00081803068800303D56068002800F04E8190
:100DC000207880071BD5706810F00C0F09D0706870
:100DD00000F00C00082840F08B807068C00300F120
:100DE00087803068800703D52069012840F036816C
:100DF0003068616920F0F80040EAC1003060207876
:100E0000000713D4207840072CD4E569002D00F0AA
:100E10002081706800F00C00082840F0AF80012DA0
:100E200040F00C81012002B0BDE8F081A0690028EB
:100E300000F08C800020C4F242200121C0F8801410
:100E4000FFF7EEFD054600BF706A800700F1BA802B
:100E5000FFF7E6FD401B0228F6D9032002B0BDE8EB
:100E6000F08100BFF0695FEAC00808D4F06940F083
:100E70008050F061F06900F080500090009847F2D7
:100E80000007C4F200073868C0054DD4386840F444
:100E900080703860FFF7C4FD054600BF3868C005A4
:100EA00042D4FFF7BDFD401B6428F7D9032002B0F0
:100EB000BDE8F081706800F00C00082803D170686C
:100EC000C0033FF576AF6068002800F00981B0F5F7
:100ED000A02F00F01D81B0F5803F00F01D8130682B
:100EE00020F480303060306820F4802017E100BFAB
:100EF0002069002840F20000C4F2422000F08C80FB
:100F000001210160FFF78CFD054600BF30688007B6
:100F10003FF56EAFFFF784FD401B0228F6D9032092
:100F200002B0BDE8F08100BFE068002800F09A80C0
:100F3000052800F0B180012800F0B280306A20F06E
:100F400001003062306A20F00400ACE00020C4F2FE
:100F500042200021C0F88014FFF762FD054600BF63
:100F6000706A80077FF54EAFFFF75AFD401B0228DD
:100F7000F6D9032002B0BDE8F08100BF0027C4F21B
:100F8000422700203866FFF74BFD022D05460DD1A4
:100F90003068800140F1D680FFF742FD401B0228F7
:100FA0004FF00300F4D902B0BDE8F0813068800151
:100FB0004FD5FFF735FD401B02284FF00300F5D950
:100FC000F1E700BF40F21000C2F20000006844F6F2
:100FD000D351C1F26201A0FB0101480A019000BF98
:100FE00000BF0198411E002801913FF40BAF00BFE4
:100FF0000198411E002801913FF404AF00BF019801
:10100000411E002801913FF4FDAE00BF0198411E32
:1010100000280191E4D1F5E600210160FFF700FD11
:10102000054600BF306880077FF5E9AEFFF7F8FCA2
:10103000401B02284FF00300F4D9B4E77068216A1E
:1010400000F480328A4209D1616A00F4701088424B
:1010500004D1002002B0BDE8F08100BF012002B041
:10106000BDE8F081306A20F001003062306A20F083
:1010700004003062FFF7D4FC054641F2883700BF18
:10108000306A800722D5FFF7CBFC401BB8424FF0F7
:101090000300F5D987E700BF306A40F004003062F2
:1010A000306A40F001003062FFF7BAFC054641F2B9
:1010B000883700BF306A800708D4FFF7B1FC401BB7
:1010C000B842F7D9032002B0BDE8F081B8F1000FB3
:1010D0003FF59BAEF06920F08050F06195E600BFCF
:1010E000306820F480303060306820F48020306038
:1010F000FFF796FC054600BF306880037FF560AEC1
:10110000FFF78EFC401B64284FF00300F4D94AE738
:10111000306840F480203060306840F480303060C7
:10112000FFF77EFC054600BF306880033FF548AE00
:10113000FFF776FC401B6428F6D9032002B0BDE817
:10114000F08100BF206AB0F5803F05D17168A268C8
:1011500021F40031114371607168626A21F47411E5
:1011600011430843706001203866FFF759FC0446BC
:10117000306880013FF56DAFFFF752FC001B02287D
:101180004FF00300F4D90EE770B538B10446406A59
:1011900030B10020206104F1140007E0012070BD8F
:1011A0006068B0F5827F03D004F11C00002101606B
:1011B0000026A66294F8510020B9204684F85060B9
:1011C00000F038F8022084F8510094E8071001F488
:1011D0008271036802F4044223F040030360236930
:1011E00011440CF40062114403F0020263691144DB
:1011F00003F00102A369E569114403F4007211448C
:1012000005F03802256A114405F08002A56A1143F1
:1012100005F4005211430160042101EA13414160C9
:10122000C16921F40061C1610120666584F8510043
:10123000304670BD70B586B040F60004C4F20104BB
:10124000006804F5205100268842049602D006B0BA
:1012500070BD00BF41F21800C4F20200016802AD87
:1012600041F480510160016801F4805101910199BC
:10127000016841F0040101600068294600F00400A3
:1012800001900198A0200290022003900320059075
:101290002046FFF7BDFA4020CDE902062046294648
:1012A0000496FFF7B5FA06B070BD00002DE9F041D5
:1012B00082B0044690F85000012803D1022002B009
:1012C000BDE8F08101201D4616460F4684F8500007
:1012D000FFF7A6FB94F8511001290DD18046002F8D
:1012E0004FF0010018BF002E0ED1002184F85010DD
:1012F00002B0BDE8F08100BF0220002184F8501048
:1013000002B0BDE8F08100BF0320002184F8510045
:1013100061652763A686E686A163A187E187A06849
:101320002164B0F5004F2068616407D1016821F0A5
:1013300040010160016841F4804101600168490693
:1013400003D4016841F0400101606168731EE268E6
:10135000B1FA81F1B3FA83F349095B09B2F5006F81
:1013600041EA03013AD131B137F8021BC16027636A
:10137000E08E0138E086E08E002869D0681C0CD130
:101380001BE000BF216B31F8022BC2602163E08EAD
:101390000138E086E08E00285AD0206881688907ED
:1013A000F0D4FFF73DFBA0EB0800A842F2D338E0F1
:1013B000FFF736FBE08E00284AD020688168890755
:1013C000F6D5216B31F8022BC2602163E08E013823
:1013D000E086E08E0028F0D13AE000BF39B13978DC
:1013E0000173206B01302063E08E0138E086E08ECF
:1013F00070B3681C0BD11BE0216B09780173206B63
:1014000001302063E08E0138E086E08E00B3206872
:1014100081688907F0D4FFF703FBA0EB0800A8421E
:10142000F3D3032035E000BFFFF7FAFAE08E78B17E
:10143000206881688907F7D5216B09780173206BD3
:1014400001302063E08E0138E086E08E0028EFD185
:10145000204680212A46434600F0B0FD28B1606D49
:1014600040F02000606520206065A06838B9002049
:1014700001902068C1680191806801900198606DB9
:1014800030B10120002184F8501002B0BDE8F08195
:101490000020012184F85110002184F8501002B07E
:1014A000BDE8F0812DE9F04381B0044690F850008A
:1014B000012803D1022001B0BDE8F08301201E46BF
:1014C00015460F4684F85000FFF7AAFA94F8511019
:1014D000814601290CD1002F4FF0010018BF002DCB
:1014E00014D1002184F8501001B0BDE8F08300BF92
:1014F0006068B0F5827F40F0998004294FF00200C7
:10150000EFD1A1680029E6D0EBE700BF002EE8D0BC
:1015100094F85100002104281CBF052084F85100D4
:101520006165A563E687A6872763E6862068A686A9
:10153000216461640168490603D4016841F04001F7
:1015400001606168731EE268B1FA81F1B3FA83F356
:10155000DDF8208049095B09B2F5006F41EA03011B
:101560006CD131B137F8021BC1602763E08E0138BE
:10157000E086012518F1010031D101E0FFF750FAB2
:10158000E08E18B9E08F002800F0C08020688168E4
:1015900089070CD5E18E51B1012D08D1216B0025B1
:1015A00031F8022BC2602163E18E0139E186816846
:1015B000C907E3D0E18F0029E0D0C068A16B012505
:1015C00021F8020BA163E08F0138E087D6E700BF66
:1015D000FFF726FAA0EB0900404580F0AB80E08ED3
:1015E00018B9E08F002800F0918020688168890791
:1015F0000CD5E18E51B1012D08D1216B002531F8B8
:10160000022BC2602163E18E0139E1868168C9073E
:10161000DED0E18F0029DBD0C068A16B012521F865
:10162000020BA163E08F0138E087D1E7022000219F
:1016300084F8501001B0BDE8F08300BF39B13978AB
:101640000173206B01302063E08E0138E0860125B4
:1016500018F1010032D101E0FFF7E2F9E08E10B994
:10166000E08F002852D02068816889070ED5E18E6E
:1016700061B1012D0AD1216B002509780173216B1D
:10168000206801312163E18E0139E1868168C90753
:10169000E2D0E18F0029DFD0C068A16B012508707E
:1016A000A06B0130A063E08F0138E087D4E700BF72
:1016B000FFF7B6F9A0EB090040453BD2E08E08B930
:1016C000E08F18B32068816889070ED5E18E61B17B
:1016D000012D0AD1216B002509780173216B206847
:1016E00001312163E18E0139E1868168C907DFD0CC
:1016F000E18F0029DCD0C068A16B01250870A06BC8
:101700000130A063E08F0138E087D1E720468021D7
:1017100042464B4600F052FCB0B1606D40F02000F4
:101720006065202060650120002184F8501001B020
:10173000BDE8F083012084F851000320002184F8E3
:10174000501001B0BDE8F083A06838B900200090C7
:101750002068C1680091806800900098606D002842
:101760004FF0010004BF84F851000020002184F8EC
:10177000501001B0BDE8F083411E0020B0EB116FA6
:101780001CBF012070474EF21002CEF200025160E1
:101790004EF62351CEF20001F0230B70072190602A
:1017A00011607047002804BF0120704710B504463F
:1017B00090F8410028B9002084F84000204600F04D
:1017C00063F8242084F841002068D4E90212C36839
:1017D00023F40053C360036923F440531A430261A6
:1017E000D4E904231143C268194341F20C639A43BC
:1017F0001143C1604169A26921F44071114343F66C
:101800000002C4F201029042416103D0FFF794FA52
:1018100002E000BFFFF7A4FAD4E9002319214843EE
:101820009900B0FBF1F048F21F5CC5F2EB1CA0FB85
:101830000C314FF69C734909C0F6FF7301FB03009E
:10184000322303EB0010A0FB0C03F02000EA53103E
:1018500000EB0110C3F3431108449060106920218C
:1018600020F490401061506920F02A005061D06847
:1018700040F40050D0600020606484F8411084F887
:101880004210606310BD000070B586B040F60004E1
:10189000C4F20104006804F5405100268842049611
:1018A00002D006B070BD00BF41F21800C4F20200C1
:1018B000016802AD41F480410160016801F480419A
:1018C00001910199016841F0040101600068294615
:1018D00000F00400019001984FF400700290022083
:1018E0000390032005902046FEF792FF4FF480609E
:1018F000CDE90206204629460496FEF789FF06B088
:1019000070BD00002DE9F04381B0044690F841001D
:10191000202840F0B180884600294FF0010000F0F7
:10192000D6801646002A00F0D28000206064212074
:101930001D4684F84100FFF773F8A684E684A16889
:101940000646B1F5805F03D12069002800F0988039
:1019500047464FF00008E18C2068002900F096808F
:1019600005F101090BE000BF47B317F8011B416007
:10197000E18C0139E184E18C002900F08780016865
:101980000906F1D4B9F1000F0AD0EDB1FFF748F81C
:10199000801BA84218D8206801680906F6D5E3E73D
:1019A00001680906E0D4016809065CBF01685FEAC6
:1019B0000161D9D401680906F2D5D5E738F8021BD0
:1019C00000276FF35F21D2E7206850E8030F2168FA
:1019D00020F4D07041E80302BAB3206850E8030F46
:1019E000216820F4D07041E8030272B3206850E807
:1019F000030F216820F4D07041E803022AB3206865
:101A000050E8030F216820F4D07041E80302002A57
:101A1000DAD11AE0206850E8050F216820F00100B3
:101A200041E80502DAB1206850E8050F216820F08E
:101A3000010041E8050292B1206850E8050F2168D5
:101A400020F0010041E805024AB1206850E8050F86
:101A5000216820F0010041E80502002ADAD12020A7
:101A600084F8410084F84200002084F840000320FC
:101A700001B0BDE8F08300BF022001B0BDE8F083F3
:101A80000027E18C206800297FF46AAF01684906CD
:101A900019D4FDB1691C0DD10168490613D4016840
:101AA00049065CBF01685FEA41610CD401684906E0
:101AB000F2D508E0FEF7B4FF801BA8420AD82068E0
:101AC00000684006F6D5202084F84100002001B0CF
:101AD000BDE8F083206850E8030F216820F4D0703F
:101AE00041E80302002A3ED0206850E8030F216835
:101AF00020F4D07041E80302AAB3206850E8030F35
:101B0000216820F4D07041E8030262B3206850E8F5
:101B1000030F216820F4D07041E80302002AD9D1D4
:101B200021E000BF206850E8050F216820F0010087
:101B300041E80502002A3FF492AF206850E8050F03
:101B4000216820F0010041E80502002A3FF487AF38
:101B5000206850E8050F216820F0010041E80502E7
:101B6000002A3FF47CAF206850E8050F216820F080
:101B7000010041E80502002AD4D170E7FEE7000029
:101B80002DE9F04784B040F20C00C2F2000000786A
:101B90004FEA7010042807D242F6E821C0F600018F
:101BA00051F8208006E000BF42F6FE20C0F600009B
:101BB00000F072FF72A0414600F0F4FA40F60045D2
:101BC000C4F20105284680210022FEF723FF40F2DF
:101BD0001806A920C2F2000601A9ADF804004FF0D2
:101BE000FF3A30460A460223CDF800A0FFF75AFC20
:101BF0009DF80540284680210122FEF70BFF28466C
:101C000080210022FEF706FFA8200DF10601ADF8A5
:101C1000060030460A460223CDF800A0FFF742FC3A
:101C20009DF80770284680210122FEF7F3FE284622
:101C30008021002247EA0429FEF7ECFEAB2002A92E
:101C4000ADF8080030460A460223CDF800A0FFF7A1
:101C500029FC9DF80940284680210122FEF7DAFE82
:101C6000284680210022FEF7D5FEAA200DF10A01A8
:101C7000ADF80A0030460A460223CDF800A0FFF76F
:101C800011FC9DF80B70284680210122FEF7C2FE50
:101C900028468021002247EA0424FEF7BBFEAD203F
:101CA00003A9ADF80C0030460A460223CDF800A087
:101CB000FFF7F8FB9DF80D70284680210122FEF702
:101CC000A9FE284680210022FEF7A4FEAC200DF1DB
:101CD0000E01ADF80E0030460A460223CDF800A0F2
:101CE000FFF7E0FB9DF80F60284680210122FEF7F8
:101CF00091FE42F6F820C0F60000494646EA072564
:101D000000F050FA20A0214600F04CFA20A029460D
:101D100000F048FA4846FEF765FA06464046FEF7E8
:101D200061FA074630463946FEF71EFA0646204657
:101D3000FEF758FA3946FEF717FA04462846FEF72A
:101D400051FA3946FEF710FA05463046FEF753FAC7
:101D5000024611A00B4600F025FA2046FEF74BFA8A
:101D6000024611A00B4600F01DFA2846FEF743FA82
:101D7000024611A00B4600F015FA04B0BDE8F0874A
:101D8000733D25640A000000793A25640A000000CA
:101D90007A3A25640A00000042783D256C66206787
:101DA000617573730A00000042793D256C662067F7
:101DB000617573730A000000427A3D256C662067E6
:101DC000617573730A00000070B584B040F20C00B6
:101DD00040F60044C2F20000C4F201040678204636
:101DE00080210022FEF716FE40F218054FF4F9504C
:101DF000C2F20005ADF806000DF1060128460222E8
:101E00004FF0FF33FFF752FA204680210122FEF700
:101E100001FE204680210022FEF7FCFD21208DF8E6
:101E2000080002A9284602224FF0FF338DF809600E
:101E3000FFF73CFA204680210122FEF7EBFD204609
:101E400080210022FEF7E6FD2220ADF80A000DF108
:101E50000A01284602224FF0FF33FFF727FA2046F7
:101E600080210122FEF7D6FD204680210022FEF7C8
:101E7000D1FD2320ADF80C0003A9284602224FF023
:101E8000FF33FFF713FA204680210122FEF7C2FD3F
:101E9000204680210022FEF7BDFD2420ADF80E0073
:101EA0000DF10E01284602224FF0FF33FFF7FEF935
:101EB000204680210122FEF7ADFD04B070BD000078
:101EC00070B584B041F21800C4F20200016840F617
:101ED000004441F0040101600168C4F2010401F012
:101EE0000401009100990168002241F0080101609D
:101EF0000068812100F008000090009820468125AC
:101F00000026FEF787FD0120CDE90106022003909F
:101F1000694620460095FEF77BFC04B070BD0000CA
:101F2000B0B540F2180043F20001C2F20000C4F262
:101F300001014FF48272002380E80E0000F10C01D1
:101F40004FF0020C4FF0010E4FF40074302581E881
:101F500008500A21C0E90645C0E90833C0E90A3142
:101F6000FFF712F9002808BFB0BDBDE8B040FEF78A
:101F700035BC000080B540F2700043F60001C2F2AB
:101F80000000C4F2010100234FF00C0C4FF4E132C9
:101F900080E80E00C0E90333C0E905C3C361FFF761
:101FA00001FC002808BF80BDBDE88040FEF716BCDC
:101FB000FEE70000FEE70000704700002DE9F04159
:101FC00082B01E4690460D460446FEF729FD301AA3
:101FD00000EB0807FEF724FD40F21001C2F20001F9
:101FE0000968C1F3CB317943019121688A682A409D
:101FF000AA4227D1064618F101001FD0FEF710FDB6
:10200000801BB84222D2019801990028A1F1010158
:1020100001912168896808BF074601EA0500A842C6
:10202000ECD00FE088682840A8420BD1886828408F
:10203000A84207D188682840A84203D18868284070
:10204000A842EFD0002002B0BDE8F081D4E9000141
:102050004268B1F5827F22F0E00242600AD1A168B5
:10206000B1F5004F02D0B1F5806F03D1016821F0C6
:1020700040010160A16AB1F5005F07D1016821F458
:1020800000510160016841F400510160012084F8B1
:102090005100002084F85000032002B0BDE8F08118
:1020A00070470000FEF7C2BC70470000FEE700006A
:1020B00080B582B0019040F27000C2F2000001A928
:1020C00001224FF47A73FFF71DFC019802B080BD26
:1020D00090B065208DF80300FEF7B6FC00240120C7
:1020E000CDE90B44CDE9094406900A904FF4E01085
:1020F0004FF4803102250F9006A8CDE90714CDE9F1
:102100000D51FEF741FE28B1EFF3108072B600BF0B
:10211000FEE700BF0F20CDE901058020CDE90304D3
:1021200001A802210594FEF725FD28B1EFF31080E8
:1021300072B600BFFEE700BFFFF7C2FEFFF7F0FE7A
:10214000FFF718FFFFF740FE11A000F0A5FC40F6D6
:10215000004440F27005C4F20104C2F200050DF122
:1021600003060DA74FF4FA70FEF73EFB204601214F
:10217000FEF748FC2846314601224FF47A73FFF7F8
:10218000C1FB384600F088FCFFF7FAFCEAE700BF25
:1021900048454C4C0000000068656C6C6F207877F7
:1021A0006A0000000FB4054B10B503A9044A029859
:1021B00000F0DAF810BC5DF814FB0000B120000854
:1021C0000000002002E008C8121F08C1002AFAD14E
:1021D00070477047002001E001C1121F002AFBD1A7
:1021E000704700002DE9FF5F82B00021DDE9043077
:1021F000020DDDF840B0034318D044F61050A2F2AF
:10220000FF3242431514119801281FD0A5EB0B0093
:10221000401C5FEA000A4FF000064E4FDFF838918D
:10222000B046504615D5CAF1000413E011980124B8
:102230004AA3012801D16FEA0B010298119AC0E963
:102240000031C0E9024206B0BDE8F09FCBF10000CA
:10225000DFE704460021404A491842EB0450CDE92B
:10226000001012E0E00707D032463B4640464946A0
:10227000FEF7F9F88046894632463B461046194635
:10228000FEF7F1F806460F466410002CEAD1DDE9AE
:102290000401DDE90023BAF1000F06DAFEF7E3F8E6
:1022A00042464B46FEF7DFF805E0FEF74EF94246A0
:1022B0004B46FEF74AF904460E460022284BFEF72D
:1022C000CBF903D84FF0FF30014607E00022254B41
:1022D00020463146FEF720F8FEF7A6F9102409E063
:1022E000002C0ADB0A220023FDF7AEFF039B3032ED
:1022F0001A55641E50EA0102F2D1641C039AC4F11B
:1023000011031444119A012A03D0012208430DD16C
:102310000AE0084304D000204FF0110B119072E73F
:10232000A3EB0B056D1E0DE05B4504DD4FF00002D5
:1023300005F1010504E003DA4FF00002A5F1010503
:10234000002AECD002981199C0E90231C0E9004599
:1023500079E70000000014400000F03F300000006A
:102360000000F0430000E03F2DE9FF4F95B09B4691
:102370008946064600250FE2252877D10024274606
:10238000F84A0121059400E0044316F8013F203B80
:1023900001FA03F01042F7D130782A2811D06FF0FB
:1023A0002F033078A0F13002092A16D8059A44F09C
:1023B000020402EB820203EB42021044761C0590F9
:1023C000EFE759F8042B0592002A03DA504244F44F
:1023D0000054059044F00204761C30782E2816D163
:1023E00016F8010F44F004042A280DD06FF02F02D4
:1023F0003078A0F13003092B09D807EB870302EBF3
:102400004303C718761CF3E759F8047B761C307831
:102410006C280FD006DC4C2817D068280DD06A280D
:1024200014D104E0742810D07A280FD10DE044F4C0
:1024300000140AE044F4801401E044F4401472787B
:10244000824202D104F58014761C761C307866280E
:102450000BD013DC582877D009DC002875D045282C
:10246000F6D04628F4D047281AD19DE118E0632819
:1024700035D0642879D0652812D195E1702873D0C1
:1024800008DC6728F1D069286FD06E280DD06F283E
:1024900006D1B5E073282CD0752875D0782874D073
:1024A0005A46179990476D1C75E1C4F302500228F3
:1024B00009D003280DD0D9F8001004280DD00D60E4
:1024C00009F1040967E1D9F80010EA17C1E90052DF
:1024D000F6E7D9F800100D80F2E70D70F0E719F873
:1024E000041B8DF8001000208DF80100EA46012041
:1024F00003E059F804AB4FF0FF3061074FF00001E3
:1025000002D40DE008F101018846B9420FDA804596
:10251000F8DB1AF808100029F4D108E008F10101ED
:1025200088468142FADB1AF808100029F6D105988E
:102530005B46A0EB080721463846179A00F094FA4C
:10254000284400EB080507E04DE029E10DE01AF80A
:10255000010B5A4617999047B8F10108F7D25B462C
:1025600021463846179A13E142E00A220092C4F34A
:1025700002524FF0000A022A08D059F804CB032A6D
:102580004FEAEC710AD00DE029E02AE009F10701D9
:1025900021F00702F2E802C1914609E00FFA8CFC33
:1025A0004FEAEC71042A03D14FFA8CFC4FEAEC712C
:1025B000002907DA0A460021DCF1000C61EB020178
:1025C0002D2202E0220504D52B228DF804200122C1
:1025D00003E0E20701D02022F7E7904659E00A2104
:1025E00002E010220DE010214FF0000A00910BE0F4
:1025F00010224FF0000A44F004040827009203E080
:1026000008224FF0000A0092C4F30252022A05D0B9
:1026100059F804CB0021032A08D009E009F1070189
:1026200021F00702F2E802C1914605E01FFA8CFC96
:10263000042A01D10CF0FF0C4FF00008220728D526
:10264000702806D0009B83F0100353EA0A0305D0DC
:102650000EE040228DF80420012208E05CEA01022D
:1026600006D030228DF804208DF805000222904615
:10267000009B83F0080353EA0A030AD15CEA0102D3
:1026800001D1620705D530228DF804204FF00108F2
:102690007F1E582804D034A003900EA802900DE0AD
:1026A00036A0F9E753466046009AFDF7CDFD844613
:1026B0000398825C0298401E029002705CEA01005E
:1026C000F0D1029806A9081A00F1200A600702D585
:1026D00024F4803400E00127574502DDA7EB0A000F
:1026E00000E0002000EB0A01009005984144401AE8
:1026F0000590E00306D45B462146179A059800F042
:10270000B3F90544002706E001A85A46C05D1799B1
:1027100090476D1C7F1C4745F6DBE0030CD55B46FC
:102720002146179A059800F09FF9054404E03020EF
:102730005A46179990476D1C0099481E0090002931
:10274000F5DC08E0029802995A460078491C02918B
:10275000179990476D1CBAF10001AAF1010AF1DC4A
:1027600065E1000009280100303132333435363755
:1027700038396162636465660000000030313233CD
:10278000343536373839414243444546000000006D
:1027900000F058F90544761C307800287FF4ECAD41
:1027A00019B02846BDE8F08F620700D4062709F16A
:1027B000070222F0070CFCE80223E14603F0004880
:1027C0005FEA080C02D00FF2702C0DE05FEA045CA7
:1027D00002D50FF2682C07E05FEAC47C02D00FF24A
:1027E000602C01E0AFF2700C4FF0FF3823F0004393
:1027F000CDF850C065280CD006DC452809D0462805
:102800001DD047283DD13DE0662818D067287ED1ED
:1028100038E00021112F01DB112000E0781CCDE908
:10282000000106A90EA8FFF7DDFCDDE90F010E9AF5
:1028300003910021009207F1010A04914DE04FF04D
:1028400000400097CDE9011006A90EA8FFF7CAFCC9
:10285000DDE90F0203920E9B11990022DDF80CA016
:102860000093049211B9791C00EB010AB7EB0A003E
:1028700004D4C0F1FF3007F1010A0490AAEB07006D
:10288000019044E0012F00DA01270021112F01DD22
:10289000112000E03846CDE9000106A90EA8FFF797
:1028A000A1FCDDE90F010E9A039100210491009231
:1028B000BA4621070CD40399514500DA8A46BAF189
:1028C000010F05DD009AAAF10101515C302908D001
:1028D000B84202DA10F1040F06DA0121CDE9011045
:1028E00015E0AAF10101E9E7002805DC049901449B
:1028F0000491AAEB000102E0411C514500DD8A462B
:102900000499401A401C01904FF0004002902007AB
:1029100004D40198504501DBCDF8048000208DF8E7
:102920004F0002980DF14F07B0F1004F25D02B203A
:102930000E9002984FF0020800280CDA40420290F4
:102940002D200E9007E00A210298FDF767FC303138
:10295000029007F8011DB8F10001A8F10108F2DCAE
:1029600002980028EFD1791E0E980870307800F098
:10297000200040F0450007F8020D12A8C01B00F12E
:1029800007081498007800B1012000EB0A010198B3
:1029900001EBE07105984144401A401E0590E003A8
:1029A00006D45B462146179A059800F05DF8054469
:1029B0001498007818B15A46179990476D1CE00397
:1029C00024D55B462146179A059800F04DF805443A
:1029D0001CE00498002807DBDDE90301884203DDE1
:1029E0000098405C179901E0179930205A469047AB
:1029F000049805F10105401C04900198401E0190C7
:102A000004D12E205A46179990476D1CBAF1000147
:102A1000AAF1010ADDDC05E017F8010B5A46179907
:102A200090476D1CB8F10001A8F10108F4DC5B4689
:102A30002146179A0598ABE62D0000002B000000F8
:102A4000200000002DE9F041044600251E461746EF
:102A5000880404D405E039462020B0476D1C641E6C
:102A6000F9D52846BDE8F0812DE9F041044600255E
:102A70001E469046C80301D5302700E02027880471
:102A800004D505E041463846B0476D1C641EF9D5B3
:102A90002846BDE8F081000010B5044601E0FFF7CC
:102AA00007FB14F8010B04490028F8D1BDE81040D9
:102AB0000A20FFF7FDBA000000000020000000001F
:102AC00000000000010203040607080900000000DE
:102AD00001020304010202030405060708090A0BA8
:102AE0000C0D0E0F10100000BA1A00005D0D000052
:102AF000E9080000AF060000783A25640A00736513
:102B00006E7369746976697479206572726F722167
:102B100000000000382B0008000000201800000012
:102B2000C4210008502B000818000020A804000051
:102B3000D421000800000000000000000100000097
:102B400010000000600000000024F40000000000FD
:0400000508000131BD
:00000001FF
