:020000040800F2
:10000000D00A0020B5010008B90F0008090F000848
:10001000B50F0008710200080D1C00080000000068
:10002000000000000000000000000000011C0008AB
:100030007502000800000000191B0008051C0008DC
:10004000CF010008CF010008CF010008CF01000850
:10005000CF010008CF010008CF010008CF01000840
:10006000CF010008CF010008CF010008CF01000830
:10007000CF010008CF010008CF010008CF01000820
:10008000CF010008CF010008CF010008CF01000810
:10009000CF010008CF010008CF010008CF01000800
:1000A000CF010008CF010008CF010008CF010008F0
:1000B000CF010008CF010008CF010008CF010008E0
:1000C000CF010008CF010008CF010008CF010008D0
:1000D000CF010008CF010008CF010008CF010008C0
:1000E000CF010008CF010008CF01000800F002F89E
:1000F00000F050F814A696E8000CB244B344DA4578
:1001000001D100F047F8BAE80F000FA696E83000DA
:10011000A5EB040504EB0607AAEB0704A7F101070A
:100120004FEA15154FEA3414A4F10104AC4201D38F
:1001300000F030F813F0010F18BFFB1A43F0010371
:1001400000F001F8DBE718478C1B0000AC1B000037
:10015000103A24BF78C878C1FAD8520724BF30C8F3
:1001600030C144BF04680C60704700007047000055
:100170000023002400250026103A28BF78C1FBD8B0
:10018000520728BF30C148BF0B6070471FB51FBD65
:1001900010B510BD00F031F81146FFF7F7FF01F080
:1001A00037FD00F04FF803B4FFF7F2FF03BC00F097
:1001B00057F800000948804709480047FEE7FEE776
:1001C000FEE7FEE7FEE7FEE7FEE7FEE7FEE7FEE707
:1001D00004480549054A064B70470000091C000801
:1001E000ED000008D0040020D00A0020D006002036
:1001F000D0060020704770477047754600F02CF815
:10020000AE4605006946534620F00700854618B003
:1002100020B5FFF7DDFFBDE820404FF000064FF0AE
:1002200000074FF000084FF0000BAC46ACE8C009E7
:10023000ACE8C009ACE8C009ACE8C00921F007018E
:100240008D46704710B50446AFF300802046BDE8E8
:100250001040FFF7A8BF00000048704710000020C2
:1002600001491820ABBEFEE72600020070470000DF
:10027000FEE7000070470000EFF3108072B600BF89
:10028000FEE70000B0B5044600F020F9054640F254
:100290000000C2F200000078611C18BF044400BFD7
:1002A00000F014F9401BA042FAD3B0BD2DE9F04F85
:1002B00082B00E68002E00F0FF8040F20C4C40F23D
:1002C000004E41F20042C4F2010CC4F2010EC4F22D
:1002D00001020427002401234FF0000A4FF0000917
:1002E000904208BF0327009742E000BF012704F0B7
:1002F0000C030F229A402BEA020207FA03F34FEA9B
:100300009A051A4346F825204E68F203DEF80020CD
:1003100054BF22EA080242EA0802CEF80020DEF8C2
:100320000420B30354BF22EA080242EA0802CEF8CE
:100330000420F302DEF8082054BF22EA080242EA51
:100340000802B302CEF80820DCF800204FF00103C9
:1003500054BF22EA080242EA0802CCF800200E68E4
:100360000AF1010A36FA0AF204F1040400F0A4804A
:1003700003FA0AFB16EA0B08F1D04E684FF6FF723B
:10038000C1F21002964211DC122E55D8DFE806F0B9
:10039000340A4448545454545454545454545454A3
:1003A000544C5000D1F80C9046E000BF4FF6FF725D
:1003B000C1F2210296420FDC0022C1F211029642E4
:1003C0001AD00022C1F21202964215D00022C1F2C8
:1003D0002102964210D02FE00022C1F22202964262
:1003E0000AD00022C1F23102964205D00022C1F2A9
:1003F0003202964220D100BF8A684AB1012A14BF56
:10040000C0F814B0C0F810B04FF0080914E000BFF5
:100410004FF0040910E000BFCA6802F108090BE0C0
:100420004FF0000908E000BFCA6802F1040903E0C8
:10043000CA6802F10C0900BF22460646B8F5807F63
:1004400024BF203A043637680F25954027EA050572
:1004500009FA02F22A433260CA79D2067FF57FAFE9
:1004600041F21803C4F202031A68AEF57E7642F038
:1004700001021A601A6802F001020192019A2AF040
:10048000030256F802B040F60002C4F201029042A4
:1004900010D040F60042C4F2010290423FF426AF71
:1004A00041F20002C4F20102009F904208BF0227FD
:1004B0001DE700BF00271AE702B0BDE8F08F00007B
:1004C000002A08BF090401617047000040F2C840DB
:1004D000C2F200000068704740F2000040F2C841DC
:1004E000C2F20000C2F2000100780A6810440860FD
:1004F0007047000080B542F20000C4F202000168BB
:1005000041F010010160032000F07AF80F2000F0A4
:1005100005F800F027F8002080BD000070B540F21B
:100520000006C2F2000640F208013278C2F2000171
:100530004FF47A730968B3FBF2F20446B1FBF2F1AF
:10054000084600F0CBFC0F2C4FF0010508D838B955
:100550004FF0FF3021460022002500F025F874609E
:10056000284670BD82B041F21800C4F20200016852
:10057000022241F001010160016801F001010191D5
:100580000199416841F080514160406800F080501D
:10059000009000980420C4F20100016862F31A611F
:1005A000016002B07047000010B54EF60C5CCEF250
:1005B000000CDCF80030C3F3022E8EF00704042C8C
:1005C00028BF0424BEF103034FF0FF3E0EFA04F4EB
:1005D00038BF0023A14399400EFA03F39A43114315
:1005E00000F00F0200F160430901043A03F564438F
:1005F0006244002848BF02F10C03197010BD0000CE
:100600004EF60C51CEF200010A684FF6FF031A4075
:1006100060F30A2242F0806040F0FD70086070478D
:10062000002804BF012070472DE9F04381B042F259
:100630000008C4F202080446D8F800000D4600F095
:10064000070088420CD2D8F8000020F007002843A9
:10065000C8F80000D8F8000000F00700A8426CD1EC
:10066000206841F204098107C4F2020917D5410745
:1006700005D5D9F8001041F4E061C9F80010010770
:1006800005D5D9F8001041F46051C9F80010D9F827
:100690000010A26821F0F0011143C9F80010C00752
:1006A00042D1D8F8000000F00700A8420CD9D8F8D1
:1006B000000020F007002843C8F80000D8F8000028
:1006C00000F00700A84238D12068410707D5D9F8C3
:1006D0000010E26821F4E0611143C9F8001000073E
:1006E00008D5D9F80000216920F4605040EAC10023
:1006F000C9F80000D9F8002002F00C00082841F2E7
:100700000020C0F27A0051D141F6C443C2F38341C4
:10071000C0F60003595CD2033CD440F60010C0F28E
:100720003D00484342E000BF606802280AD001282B
:100730002AD159F8041C890308D4012001B0BDE86E
:10074000F08300BF59F8041C8901F6D5D9F80010D0
:1007500021F003010843C9F80000FFF7B7FE064681
:1007600041F28837D9F80000616800F00C00B0EB66
:10077000810F96D0FFF7AAFE801BB842F2D9032062
:1007800001B0BDE8F08300BF59F8041C8907D4D537
:10079000DCE700BFD9F8002041F6B243C2F3404283
:1007A000C0F600039A5C4843B0FBF2F0D9F80010A1
:1007B00041F6B442C1F30311C0F60002515C40F2AD
:1007C000080220FA01F140F20400C2F200000068C1
:1007D000C2F200021160FFF7A1FE002001B0BDE8E7
:1007E000F0830000002804BF012070472DE9F0418C
:1007F00082B00446007841F20006C007C4F2020647
:100800000CD0706800F00C00042840F08180306843
:10081000800303D56068002800F04E8120788007AF
:100820001BD5706810F00C0F09D0706800F00C0038
:10083000082840F08B807068C00300F18780306822
:10084000800703D52069012840F03681306861694E
:1008500020F0F80040EAC10030602078000713D48F
:10086000207840072CD4E569002D00F020817068C5
:1008700000F00C00082840F0AF80012D40F00C8102
:10088000012002B0BDE8F081A069002800F08C8052
:100890000020C4F242200121C0F88014FFF716FEA8
:1008A000054600BF706A800700F1BA80FFF70EFEB0
:1008B000401B0228F6D9032002B0BDE8F08100BF3A
:1008C000F0695FEAC00808D4F06940F08050F06138
:1008D000F06900F080500090009847F20007C4F2E1
:1008E00000073868C0054DD4386840F4807038601F
:1008F000FFF7ECFD054600BF3868C00542D4FFF79E
:10090000E5FD401B6428F7D9032002B0BDE8F08163
:10091000706800F00C00082803D17068C0033FF530
:1009200076AF6068002800F00981B0F5A02F00F0D4
:100930001D81B0F5803F00F01D81306820F48030CB
:100940003060306820F4802017E100BF2069002863
:1009500040F20000C4F2422000F08C8001210160CE
:10096000FFF7B4FD054600BF306880073FF56EAF66
:10097000FFF7ACFD401B0228F6D9032002B0BDE80A
:10098000F08100BFE068002800F09A80052800F0A0
:10099000B180012800F0B280306A20F0010030629E
:1009A000306A20F00400ACE00020C4F242200021B4
:1009B000C0F88014FFF78AFD054600BF706A800703
:1009C0007FF54EAFFFF782FD401B0228F6D90320CA
:1009D00002B0BDE8F08100BF0027C4F2422700202A
:1009E0003866FFF773FD022D05460DD13068800192
:1009F00040F1D680FFF76AFD401B02284FF003004C
:100A0000F4D902B0BDE8F081306880014FD5FFF71E
:100A10005DFD401B02284FF00300F5D9F1E700BF50
:100A200040F20800C2F20000006844F6D351C1F25F
:100A30006201A0FB0101480A019000BF00BF0198BC
:100A4000411E002801913FF40BAF00BF0198411EE9
:100A5000002801913FF404AF00BF0198411E002817
:100A600001913FF4FDAE00BF0198411E00280191A5
:100A7000E4D1F5E600210160FFF728FD054600BF3F
:100A8000306880077FF5E9AEFFF720FD401B0228A4
:100A90004FF00300F4D9B4E77068216A00F48032A3
:100AA0008A4209D1616A00F47010884204D10020A2
:100AB00002B0BDE8F08100BF012002B0BDE8F081C6
:100AC000306A20F001003062306A20F004003062A9
:100AD000FFF7FCFC054641F2883700BF306A80070B
:100AE00022D5FFF7F3FC401BB8424FF00300F5D9C5
:100AF00087E700BF306A40F004003062306A40F09F
:100B000001003062FFF7E2FC054641F2883700BF82
:100B1000306A800708D4FFF7D9FC401BB842F7D9E8
:100B2000032002B0BDE8F081B8F1000F3FF59BAEA5
:100B3000F06920F08050F06195E600BF306820F445
:100B400080303060306820F480203060FFF7BEFCD9
:100B5000054600BF306880037FF560AEFFF7B6FC46
:100B6000401B64284FF00300F4D94AE7306840F492
:100B700080203060306840F480303060FFF7A6FCA1
:100B8000054600BF306880033FF548AEFFF79EFC86
:100B9000401B6428F6D9032002B0BDE8F08100BFF5
:100BA000206AB0F5803F05D17168A26821F4003158
:100BB000114371607168626A21F474111143084332
:100BC000706001203866FFF781FC044630688001C0
:100BD0003FF56DAFFFF77AFC001B02284FF00300D2
:100BE000F4D90EE770B538B10446406A30B1002040
:100BF000206104F1140007E0012070BD6068B0F5C9
:100C0000827F03D004F11C00002101600026A6624F
:100C100094F8510020B9204684F8506000F038F86C
:100C2000022084F8510094E8071001F482710368EF
:100C300002F4044223F040030360236911440CF4DE
:100C40000062114403F002026369114403F00102DF
:100C5000A369E569114403F40072114405F03802F8
:100C6000256A114405F08002A56A114305F400527B
:100C700011430160042101EA13414160C16921F47B
:100C80000061C1610120666584F85100304670BD85
:100C900070B586B040F60004C4F20104006804F5A3
:100CA000205100268842049602D006B070BD00BFD5
:100CB00041F21800C4F20200016802AD41F4805113
:100CC0000160016801F4805101910199016841F0CE
:100CD000040101600068294600F0040001900198B9
:100CE000A020029002200390032005902046FFF7E9
:100CF000DDFA4020CDE90206204629460496FFF79A
:100D0000D5FA06B070BD00002DE9F04381B004466D
:100D100090F85000012803D1022001B0BDE8F08313
:100D20004FF001091D4616460F4684F85090FFF714
:100D3000CDFB94F85110012944D18046002F4FF08B
:100D4000010018BF002E00F0C0800320002184F8AD
:100D5000510061652763A686E686A163A187E187C6
:100D6000A0682164B0F5004F2068616407D1016874
:100D700021F040010160016841F480410160016897
:100D8000490603D4016841F0400101606168731EA7
:100D9000E268B1FA81F1B3FA83F349095B09B2F56C
:100DA000006F41EA03013BD131B137F8021BC1604A
:100DB0002763E08E0138E086E08E00286AD0681C48
:100DC0000DD11CE0022080E0216B31F8022BC260C3
:100DD0002163E08E0138E086E08E00285AD020683A
:100DE00081688907F0D4FFF771FBA0EB0800A842E7
:100DF000F2D338E0FFF76AFBE08E00284AD0206883
:100E000081688907F6D5216B31F8022BC260216316
:100E1000E08E0138E086E08E0028F0D13AE000BF95
:100E200039B139780173206B01302063E08E0138CD
:100E3000E086E08E70B3681C0BD11BE0216B097853
:100E40000173206B01302063E08E0138E086E08E74
:100E500000B3206881688907F0D4FFF737FBA0EB67
:100E60000800A842F3D303202FE000BFFFF72EFBBA
:100E7000E08E78B1206881688907F7D5216B097801
:100E80000173206B01302063E08E0138E086E08E34
:100E90000028EFD1204680212A46434600F03EFE3E
:100EA00028B1606D40F02000606520206065A0687A
:100EB00038B9002000902068C168009180680090D7
:100EC0000098606D002818BF0120002184F851901F
:100ED00084F8501001B0BDE8F0830000411E0020EE
:100EE000B0EB116F1CBF012070474EF21002CEF222
:100EF000000251604EF62351CEF20001F0230B7038
:100F00000721906011607047FEE7000070B584B063
:100F100041F21800C4F20200016840F6000441F0FA
:100F2000200101600168C4F2010401F02001009178
:100F300000990168012241F00401016000681E214E
:100F400000F004000090009820461E250126FFF7BF
:100F5000B7FA0320039069462046CDE90056029671
:100F6000FFF7A4F904B070BD80B540F2704043F2C1
:100F70000001C2F20000C4F201014FF482720023AA
:100F800080E80E0000F114014FF4007C4FF0100EC9
:100F900081E808500A21C0E90333C0E90833C0E9F9
:100FA0000A31FFF71FFE002808BF80BDBDE8804062
:100FB000FFF762B9FEE70000FEE700002DE9F04F01
:100FC00081B040F6000440F27045C4F201040026EE
:100FD000C2F200050DF101090DF1020A0DF103073E
:100FE0004FF0000808F1B0008DF8000020460821FD
:100FF0000022FFF765FA204604210022FFF760FA7D
:101000002846694601224FF48073FFF77DFE204693
:1010100004210122FFF754FA204608210122FFF79C
:101020004FFA10208DF80100204608210022FFF71A
:1010300047FA204604210022FFF742FA2846494693
:1010400001224FF48073FFF75FFE20460421012246
:10105000FFF736FA204608210122FFF731FA204631
:10106000082100228DF80260FFF72AFA20460421A9
:101070000022FFF725FA2846514601224FF48073DB
:10108000FFF742FE204604210122FFF719FA20460D
:1010900008210122FFF714FA4FF0000B2046082127
:1010A00001228DF80360FFF70BFA2046042100228D
:1010B000FFF706FA2846394601224FF48073FFF7FE
:1010C00023FE204604210122FFF7FAF920460821D9
:1010D0000122FFF7F5F90BF101004FFA80FBBBF19C
:1010E000FF3FDBDCB8F1070F08F10108FFF47AAF2E
:1010F00001B0BDE8F08F000010B582B0012819D012
:1011000000283DD140F60004A620C4F201048DF869
:101110000600204608210022FFF7D2F920460421CC
:101120000022FFF7CDF940F27040C2F200000DF14D
:10113000060116E040F60004A720C4F201048DF871
:101140000700204608210022FFF7BAF920460421B3
:101150000022FFF7B5F940F27040C2F200000DF135
:10116000070101224FF48073FFF7CEFD20460421D2
:101170000122FFF7A5F9204608210122FFF7A0F977
:1011800002B010BDB0B582B0012837D000287BD1A5
:1011900040F60004C820C4F201048DF80400204683
:1011A00008210022FFF78CF9204604210022FFF7D6
:1011B00087F940F27045C2F2000501A928460122D4
:1011C0004FF48073FFF7A0FD204604210122FFF7B2
:1011D00077F9204608210122FFF772F9A1208DF846
:1011E0000500204608210022FFF76AF92046042165
:1011F0000022FFF765F90DF1050135E040F6000426
:10120000C020C4F201048DF8060020460821002207
:10121000FFF756F9204604210022FFF751F940F26A
:101220007045C2F200050DF10601284601224FF477
:101230008073FFF769FD204604210122FFF740F982
:10124000204608210122FFF73BF9A0208DF8070076
:10125000204608210022FFF733F92046042100220E
:10126000FFF72EF90DF10701284601224FF4807394
:10127000FFF74AFD204604210122FFF721F920460D
:1012800008210122FFF71CF902B0B0BD43B2002BC8
:1012900048BF70473F2917D8002A40F270024FEA32
:1012A000D10301F007014FF0010CC2F200020CFA69
:1012B00001F102EBC000C25C14BF114322EA01013C
:1012C000C15400F083BB00BF704700002DE9F0411E
:1012D00082B040F60004C4F201042046102100222E
:1012E00010270026FFF7ECF80A20FEF7CBFF204678
:1012F00010210122FFF7E4F8AE208DF80700204608
:1013000008210022FFF7DCF8204604210022FFF725
:10131000D7F840F27045C2F200050DF107012846EA
:1013200001224FF48073FFF7EFFC204604210122D5
:10133000FFF7C6F8204608210122FFF7C1F8204632
:10134000082100228DF80760FFF7BAF82046042133
:101350000022FFF7B5F80DF10701284601224FF4EE
:101360008073FFF7D1FC204604210122FFF7A8F883
:10137000204608210122FFF7A3F820460821002279
:101380008DF80770FFF79CF8204604210022FFF734
:1013900097F80DF10701284601224FF48073FFF7FB
:1013A000B3FC204604210122FFF78AF820460821D9
:1013B0000122FFF785F840272046082100228DF8FA
:1013C0000770FFF77DF8204604210022FFF778F828
:1013D0000DF10701284601224FF48073FFF794FCBA
:1013E000204604210122FFF76BF820460821012244
:1013F000FFF766F881208DF80700204608210022BB
:10140000FFF75EF8204604210022FFF759F80DF19E
:101410000701284601224FF48073FFF775FC204630
:1014200004210122FFF74CF8204608210122FFF792
:1014300047F8FF208DF80700204608210022FFF71B
:101440003FF8204604210022FFF73AF80DF107018A
:10145000284601224FF48073FFF756FC20460421F2
:101460000122FFF72DF8204608210122FFF728F876
:10147000A1208DF80700204608210022FFF720F860
:10148000204604210022FFF71BF80DF10701284632
:1014900001224FF48073FFF737FC2046042101221C
:1014A000FFF70EF8204608210122FFF709F8C820AF
:1014B0008DF80700204608210022FFF701F820469A
:1014C00004210022FEF7FCFF0DF10701284601224E
:1014D0004FF48073FFF718FC204604210122FEF729
:1014E000EFFF204608210122FEF7EAFF4FF0A60891
:1014F0002046082100228DF80780FEF7E1FF2046F4
:1015000004210022FEF7DCFF0DF10701284601222D
:101510004FF48073FFF7F8FB204604210122FEF709
:10152000CFFF204608210122FEF7CAFFA8208DF830
:101530000700204608210022FEF7C2FF20460421B2
:101540000022FEF7BDFF0DF10701284601224FF4EE
:101550008073FFF7D9FB204604210122FEF7B0FF7C
:10156000204608210122FEF7ABFF3F208DF807003F
:10157000204608210022FEF7A3FF20460421002276
:10158000FEF79EFF0DF10701284601224FF48073FC
:10159000FFF7BAFB204604210122FEF791FF204607
:1015A00008210122FEF78CFFD3208DF8070020468A
:1015B00008210022FEF784FF204604210022FEF7C6
:1015C0007FFF0DF10701284601224FF48073FFF7DA
:1015D0009BFB204604210122FEF772FF20460821D2
:1015E0000122FEF76DFF2046082100228DF80760DA
:1015F000FEF766FF204604210022FEF761FF0DF191
:101600000701284601224FF48073FFF77DFB204637
:1016100004210122FEF754FF204608210122FEF793
:101620004FFFD5208DF80700204608210022FEF745
:1016300047FF204604210022FEF742FF0DF107017B
:10164000284601224FF48073FFF75EFB20460421F9
:101650000122FEF735FF204608210122FEF730FF68
:1016600080208DF80700204608210022FEF728FF81
:10167000204604210022FEF723FF0DF10701284632
:1016800001224FF48073FFF73FFB20460421012223
:10169000FEF716FF204608210122FEF711FFD92090
:1016A0008DF80700204608210022FEF709FF20469A
:1016B00004210022FEF704FF0DF107012846012254
:1016C0004FF48073FFF720FB204604210122FEF730
:1016D000F7FE204608210122FEF7F2FEF1208DF8E8
:1016E0000700204608210022FEF7EAFE20460421DA
:1016F0000022FEF7E5FE0DF10701284601224FF416
:101700008073FFF701FB204604210122FEF7D8FE7B
:10171000204608210122FEF7D3FEDA208DF80700CB
:10172000204608210022FEF7CBFE2046042100229D
:10173000FEF7C6FE0DF10701284601224FF4807323
:10174000FFF7E2FA204604210122FEF7B9FE204607
:1017500008210122FEF7B4FE12208DF80700204672
:1017600008210022FEF7ACFE204604210022FEF7ED
:10177000A7FE0DF10701284601224FF48073FFF701
:10178000C3FA204604210122FEF79AFE20460821D2
:101790000122FEF795FEDB208DF807002046082188
:1017A0000022FEF78DFE204604210022FEF788FE6F
:1017B0000DF10701284601224FF48073FFF7A4FAC8
:1017C000204604210122FEF77BFE2046082101224B
:1017D000FEF776FE2046082100228DF80770FEF7FE
:1017E0006FFE204604210022FEF76AFE0DF107017C
:1017F000284601224FF48073FFF786FA2046042121
:101800000122FEF75DFE204608210122FEF758FE68
:1018100020208DF80700204608210022FEF750FE08
:10182000204604210022FEF74BFE0DF10701284659
:1018300001224FF48073FFF767FA2046042101224A
:10184000FEF73EFE204608210122FEF739FE022067
:101850008DF80700204608210022FEF731FE2046C1
:1018600004210022FEF72CFE0DF10701284601227B
:101870004FF48073FFF748FA204604210122FEF757
:101880001FFE204608210122FEF71AFE8D208DF84A
:101890000700204608210022FEF712FE2046042100
:1018A0000022FEF70DFE0DF10701284601224FF43C
:1018B0008073FFF729FA204604210122FEF700FE7B
:1018C000204608210122FEF7FBFD14208DF80700B9
:1018D000204608210022FEF7F3FD204604210022C5
:1018E000FEF7EEFD0DF10701284601224FF480734B
:1018F000FFF70AFA204604210122FEF7E1FD204607
:1019000008210122FEF7DCFDA4208DF80700204607
:1019100008210022FEF7D4FD204604210022FEF714
:10192000CFFD0DF10701284601224FF48073FFF728
:10193000EBF9204604210122FEF7C2FD20460821D2
:101940000122FEF7BDFD2046082100228DF8078008
:10195000FEF7B6FD204604210022FEF7B1FD0DF191
:101960000701284601224FF48073FFF7CDF9204686
:1019700004210122FEF7A4FD204608210122FEF7E2
:101980009FFDFFF71BFBAF208DF8070020460821C5
:101990000022FEF795FD204604210022FEF790FD6F
:1019A0000DF10701284601224FF48073FFF7ACF9CF
:1019B000204604210122FEF783FD20460821012252
:1019C000FEF77EFD02B0BDE8F08100002DE9F04F8A
:1019D00081B040F6000440F2700640F27045C4F257
:1019E0000104C2F20006C2F200050DF101090DF179
:1019F000020B0DF103074FF0000800BFA8F15000E3
:101A00008DF80000204608210022FEF759FD2046EF
:101A100004210022FEF754FD2846694601224FF4B6
:101A20008073FFF771F9204604210122FEF748FD7B
:101A3000204608210122FEF743FD00208DF8010019
:101A4000204608210022FEF73BFD2046042100220B
:101A5000FEF736FD2846494601224FF48073FFF712
:101A600053F9204604210122FEF72AFD20460821D1
:101A70000122FEF725FD10208DF8020020460821E6
:101A80000022FEF71DFD204604210022FEF718FD6E
:101A90002846594601224FF48073FFF735F9204656
:101AA00004210122FEF70CFD204608210122FEF749
:101AB00007FD6FF0070A00BF06EB0A00007A082155
:101AC0008DF8030020460122FEF7FAFC204604218F
:101AD0000022FEF7F5FC2846394601224FF48073B8
:101AE000FFF712F9204604210122FEF7E9FC204607
:101AF00008210122FEF7E4FC0AF1080ABAF57E7F0C
:101B0000DAD108F10108B8F1080F06F101067FF4F7
:101B100075AF01B0BDE8F08F704700002DE9F041CE
:101B200082B01E4690460D460446FEF7CFFC301AA2
:101B300000EB0807FEF7CAFC40F20801C2F2000100
:101B40000968C1F3CB317943019121688A682A4041
:101B5000AA4227D1064618F101001FD0FEF7B6FCB5
:101B6000801BB84222D2019801990028A1F10101FD
:101B700001912168896808BF074601EA0500A8426B
:101B8000ECD00FE088682840A8420BD18868284034
:101B9000A84207D188682840A84203D18868284015
:101BA000A842EFD0002002B0BDE8F081D4E90001E6
:101BB0004268B1F5827F22F0E00242600AD1A1685A
:101BC000B1F5004F02D0B1F5806F03D1016821F06B
:101BD00040010160A16AB1F5005F07D1016821F4FD
:101BE00000510160016841F400510160012084F856
:101BF0005100002084F85000032002B0BDE8F081BD
:101C000070470000FEF768BC70470000FEE7000068
:101C100090B0FEF76FFC00240120CDE90B44CDE924
:101C2000094406900A904FF4E0104FF480310225E9
:101C30000F9006A8CDE90714CDE90D51FEF7D2FDAE
:101C400020B1EFF3108072B6FEE700BF0F20CDE9A0
:101C500001054FF48060CDE9040401A8022103943A
:101C6000FEF7DEFC20B1EFF3108072B6FEE700BF96
:101C7000FFF74CF9FFF778F9FFF728FB0020002564
:101C8000FFF73AFA0020FFF77DFAFFF797F900BF58
:101C9000ECB2204600210122FFF7F8FA20463F214E
:101CA0000122FFF7F3FA681CB0F1800518BF054662
:101CB000EEE7010200000000000000000102030442
:101CC0000607080902030405060708090A0B0C0D9C
:101CD0000E0F1010F81C000800000020100000007B
:101CE00050010008081D000810000020C00A000074
:101CF000700100080000000001000000100000005A
:081D00000024F40000000000C3
:04000005080000ED02
:00000001FF
