:020000040800F2
:1000000030080020B50100083D220008012000084A
:100010003922000871020008812300080000000056
:100020000000000000000000000000004522000861
:100030008D0200080000000041220008492200084B
:10004000CF010008CF010008CF010008CF01000850
:10005000CF010008CF010008CF010008CF01000840
:10006000CF010008CF010008CF010008CF01000830
:10007000CF010008CF010008CF010008CF01000820
:100080007502000881020008CF010008CF010008B6
:10009000CF010008CF010008CF010008CF01000800
:1000A000CF010008CF010008CF010008CF010008F0
:1000B00051220008CF010008CF010008CF0100083D
:1000C000CF010008CF010008CF010008CF010008D0
:1000D000CF0100086923000875230008CF0100083C
:1000E000CF010008CF010008CF01000800F002F89E
:1000F00000F050F814A696E8000CB244B344DA4578
:1001000001D100F047F8BAE80F000FA696E83000DA
:10011000A5EB040504EB0607AAEB0704A7F101070A
:100120004FEA15154FEA3414A4F10104AC4201D38F
:1001300000F030F813F0010F18BFFB1A43F0010371
:1001400000F001F8DBE718470C2300002C23000027
:10015000103A24BF78C878C1FAD8520724BF30C8F3
:1001600030C144BF04680C60704700007047000055
:100170000023002400250026103A28BF78C1FBD8B0
:10018000520728BF30C148BF0B6070471FB51FBD65
:1001900010B510BD00F031F81146FFF7F7FF02F07F
:1001A000F1F800F04FF803B4FFF7F2FF03BC00F0E2
:1001B00057F800000948804709480047FEE7FEE776
:1001C000FEE7FEE7FEE7FEE7FEE7FEE7FEE7FEE707
:1001D00004480549054A064B704700004D220008B7
:1001E000ED0000083002002030080020300400201C
:1001F00030040020704770477047754600F02CF8B7
:10020000AE4605006946534620F00700854618B003
:1002100020B5FFF7DDFFBDE820404FF000064FF0AE
:1002200000074FF000084FF0000BAC46ACE8C009E7
:10023000ACE8C009ACE8C009ACE8C00921F007018E
:100240008D46704710B50446AFF300802046BDE8E8
:100250001040FFF7A8BF00000048704710000020C2
:1002600001491820ABBEFEE72600020070470000DF
:10027000FEE7000040F27000C2F2000000F08CB80F
:1002800040F2B400C2F2000000F086B870470000EF
:10029000EFF3108072B600BFFEE70000014690F851
:1002A0002100022816D10868D1E90FC3026822F0A4
:1002B0000E020260026822F001020260012000FAD0
:1002C00003F2CCF8042081F821000020002281F8FC
:1002D00020207047042088630120002281F820201C
:1002E0007047000090F82110022923D1026811689C
:1002F00021F00E0111602F211368C4F202018A421D
:1003000040F20401C4F2020123F00103136015DD81
:100310003023C4F202039A421CD04423C4F20203E5
:100320009A421BD05823C4F202039A421CD14FF4C4
:10033000803321E004218163012070470823C4F247
:1003400002039A420ED01C23C4F202039A420BD13C
:10035000102311E04FF480730EE000BF4FF4805380
:100360000AE000BF012307E001F1680C4FF0807341
:10037000624508BF4FF480130B60012180F8211003
:10038000426B002180F8201022B180B590470021F7
:10039000BDE880400846704710B5D0E90FCE01682F
:1003A000DCF800300A6823FA0EF35C072AD512F055
:1003B000040427D00A68920603D40A6822F00402D3
:1003C0000A602F22C4F20202914240F20402C4F2F7
:1003D00002025BDD3023C4F20203994272D044234F
:1003E000C4F20203994273D05823C4F20203994223
:1003F00040F07A804FF480231360C16A002940F0F6
:1004000098806FE09C0727D512F0020424D00A6878
:10041000920606D40A6822F00A020A60012280F8D5
:1004200021202F22C4F20202914240F20402C4F2BF
:1004300002023BDD3023C4F20203994260D0442320
:10044000C4F2020399425FD05823C4F202039942D6
:1004500060D14FF4003365E01B0743D512F008026A
:1004600008BF10BD0A6822F00E020A60012101FADD
:100470000EF2CCF80420816380F82110016B002279
:10048000002980F8202054D12CE000BF0823C4F2BA
:100490000203994222D01C23C4F20203994223D1C1
:1004A00040231360C16A002943D11BE00823C4F232
:1004B000020399422CD01C23C4F20203994229D191
:1004C00020232FE04FF480631360C16A89BB09E0E9
:1004D0004FF480431360C16A59BB03E004231360E7
:1004E000C16A31BB10BD00BF02F168044FF08063E8
:1004F000A14208BF4FF480031360C16AC9B9F1E794
:100500004FF400730EE000BF4FF400530AE000BF49
:10051000022307E002F168044FF00073A14208BF14
:100520004FF400131360816A0022002980F8202014
:10053000D8D0BDE810400847014600284FF0010020
:1005400008BF70472DE9F0470A684FF6F873CBF6FD
:10055000FD7302EB030C4CF6CD43CCF6CC43ACFB65
:10056000033C6FF00307002607EA9C07C4F202066B
:1005700001F10C0AC1E90F670227D1E9013E9AE8AF
:100580003004D1E9069881F82170176843F6F076B7
:10059000B7433B4343EA0E0323432B4343EA0A0397
:1005A00043EA090343EA0803136000228A6381F8DF
:1005B000210081F820200020BDE8F04770470000AE
:1005C000B0B5044600F01EF9054640F20000C2F244
:1005D00000000078611C18BF044400BF00F012F94D
:1005E000401BA042FAD3B0BD2DE9F04F82B00E6897
:1005F000002E00F0FD8041F20042C4F2010204230B
:1006000040F2004E904208BF03234FF6FF7CC4F235
:10061000010E009300240123C1F2100C4FF0000AD8
:100620004FF0000944E000BF012704F00C030F2243
:100630009A402BEA020207FA03F34FEA9A051A439B
:1006400046F825204E6840F20C45F202DEF80820FC
:1006500054BF22EA080242EA0802C4F20105CEF8B9
:1006600008202A68B30254BF22EA080242EA0802BC
:100670002A60B303DEF8042054BF22EA080242EAEB
:100680000802F303CEF80420DEF800204FF0010347
:1006900054BF22EA080242EA0802CEF800200E689F
:1006A0000AF1010A36FA0AF204F1040400F0A0800B
:1006B00003FA0AFB16EA0B08F1D04E68664511DC16
:1006C000122E55D8DFE806F0340A444854545454E6
:1006D0005454545454545454544C5000D1F80C9025
:1006E00046E000BF4FF6FF72C1F2210296420FDCD6
:1006F0000022C1F2110296421AD00022C1F2120267
:10070000964215D00022C1F22102964210D02FE06D
:100710000022C1F2220296420AD00022C1F2310226
:10072000964205D00022C1F23202964220D100BF8B
:100730008A684AB1012A14BFC0F814B0C0F810B0DA
:100740004FF0080914E000BF4FF0040910E000BFAB
:10075000CA6802F108090BE04FF0000908E000BF89
:10076000CA6802F1040903E0CA6802F10C0900BF7B
:1007700022460646B8F5807F24BF203A0436376803
:100780000F25954027EA050509FA02F22A4332604F
:10079000CA79D2067FF583AF41F21803C4F202038F
:1007A0001A68AEF57E7642F001021A601A6802F00D
:1007B00001020192019A2AF0030256F802B040F6B3
:1007C0000002C4F20102904210D040F60042C4F28E
:1007D000010290423FF428AF41F20002C4F201024C
:1007E000009F904208BF02271FE700BF00271CE7B9
:1007F00002B0BDE8F08F0000002A08BF09040161C3
:100800007047000040F22820C2F2000000687047E4
:1008100040F2000040F22821C2F20000C2F20001C2
:1008200000780A68104408607047000080B542F202
:100830000000C4F20200016841F0100101600320D1
:1008400000F08CF80F2000F005F800F027F80020E9
:1008500080BD000070B540F20006C2F2000640F212
:1008600008013278C2F200014FF47A730968B3FBD1
:10087000F2F20446B1FBF2F1084600F01BFC0F2C2B
:100880004FF0010508D838B94FF0FF30214600225B
:10089000002500F037F87460284670BD82B041F240
:1008A0001800C4F202000168022241F00101016057
:1008B000016801F0010101910199416841F0805105
:1008C0004160406800F08050009000980420C4F21D
:1008D0000100016862F31A61016002B07047000014
:1008E000002848BF704700F01F01012202FA01F101
:1008F0001C2202EAD0004EF20012CEF20002815019
:100900007047000010B54EF60C5CCEF2000CDCF81F
:100910000030C3F3022E8EF00704042C28BF0424F9
:10092000BEF103034FF0FF3E0EFA04F438BF00237C
:10093000A14399400EFA03F39A43114300F00F02CA
:1009400000F160430901043A03F56443624400285E
:1009500048BF02F10C03197010BD00004EF60C5197
:10096000CEF200010A684FF6FF031A4060F30A2234
:1009700042F0806040F0FD7008607047002804BFBE
:10098000012070472DE9F04381B042F20008C4F223
:1009900002080446D8F800000D4600F0070088421F
:1009A0000CD2D8F8000020F007002843C8F8000057
:1009B000D8F8000000F00700A8426CD1206841F28E
:1009C00004098107C4F2020917D5410705D5D9F8F2
:1009D000001041F4E061C9F80010010705D5D9F80D
:1009E000001041F46051C9F80010D9F80010A26855
:1009F00021F0F0011143C9F80010C00742D1D8F826
:100A0000000000F00700A8420CD9D8F8000020F040
:100A100007002843C8F80000D8F8000000F00700DD
:100A2000A84238D12068410707D5D9F80010E268FC
:100A300021F4E0611143C9F80010000708D5D9F886
:100A40000000216920F4605040EAC100C9F80000AC
:100A5000D9F8002002F00C00082841F20020C0F272
:100A60007A0051D142F24243C2F38341C0F60003FF
:100A7000595CD2033CD440F60010C0F23D0048431C
:100A800042E000BF606802280AD001282AD159F844
:100A9000041C890308D4012001B0BDE8F08300BF25
:100AA00059F8041C8901F6D5D9F8001021F003018A
:100AB0000843C9F80000FFF7A5FE064641F2883753
:100AC000D9F80000616800F00C00B0EB810F96D0FF
:100AD000FFF798FE801BB842F2D9032001B0BDE8B1
:100AE000F08300BF59F8041C8907D4D5DCE700BFA8
:100AF000D9F8002042F24043C2F34042C0F600035E
:100B00009A5C4843B0FBF2F0D9F8001042F2284258
:100B1000C1F30311C0F60002515C40F2080220FA52
:100B200001F140F20400C2F200000068C2F20002CB
:100B30001160FFF78FFE002001B0BDE8F0830000D8
:100B400040F2080041F20401C2F20000C4F20201C6
:100B50000068096842F23842C1F30221C0F600027F
:100B6000515CC8407047000040F2080041F20401A7
:100B7000C2F20000C4F202010068096842F2384281
:100B8000C1F3C221C0F60002515CC84070470000AA
:100B9000002804BF012070472DE9F04182B00446CF
:100BA000007841F20006C007C4F202060CD070685B
:100BB00000F00C00042840F081803068800303D5E9
:100BC0006068002800F04E81207880071BD570688F
:100BD00010F00C0F09D0706800F00C00082840F0ED
:100BE0008B807068C00300F187803068800703D570
:100BF0002069012840F036813068616920F0F800F2
:100C000040EAC10030602078000713D42078400704
:100C10002CD4E569002D00F02081706800F00C00F4
:100C2000082840F0AF80012D40F00C81012002B077
:100C3000BDE8F081A069002800F08C800020C4F29B
:100C400042200121C0F88014FFF7DCFD054600BFFB
:100C5000706A800700F1BA80FFF7D4FD401B0228BC
:100C6000F6D9032002B0BDE8F08100BFF0695FEA69
:100C7000C00808D4F06940F08050F061F06900F0DD
:100C800080500090009847F20007C4F200073868CF
:100C9000C0054DD4386840F480703860FFF7B2FD6D
:100CA000054600BF3868C00542D4FFF7ABFD401BC6
:100CB0006428F7D9032002B0BDE8F081706800F025
:100CC0000C00082803D17068C0033FF576AF606858
:100CD000002800F00981B0F5A02F00F01D81B0F5CB
:100CE000803F00F01D81306820F480303060306833
:100CF00020F4802017E100BF2069002840F20000A6
:100D0000C4F2422000F08C8001210160FFF77AFDDF
:100D1000054600BF306880073FF56EAFFFF772FDF4
:100D2000401B0228F6D9032002B0BDE8F08100BFC5
:100D3000E068002800F09A80052800F0B1800128C2
:100D400000F0B280306A20F001003062306A20F09A
:100D50000400ACE00020C4F242200021C0F880145E
:100D6000FFF750FD054600BF706A80077FF54EAF64
:100D7000FFF748FD401B0228F6D9032002B0BDE86A
:100D8000F08100BF0027C4F2422700203866FFF739
:100D900039FD022D05460DD13068800140F1D68025
:100DA000FFF730FD401B02284FF00300F4D902B0DA
:100DB000BDE8F081306880014FD5FFF723FD401B6F
:100DC00002284FF00300F5D9F1E700BF40F2080018
:100DD000C2F20000006844F6D351C1F26201A0FBE8
:100DE0000101480A019000BF00BF0198411E002880
:100DF00001913FF40BAF00BF0198411E0028019103
:100E00003FF404AF00BF0198411E002801913FF458
:100E1000FDAE00BF0198411E00280191E4D1F5E626
:100E200000210160FFF7EEFC054600BF3068800737
:100E30007FF5E9AEFFF7E6FC401B02284FF0030008
:100E4000F4D9B4E77068216A00F480328A4209D18B
:100E5000616A00F47010884204D1002002B0BDE83D
:100E6000F08100BF012002B0BDE8F081306A20F0BF
:100E700001003062306A20F004003062FFF7C2FCEB
:100E8000054641F2883700BF306A800722D5FFF758
:100E9000B9FC401BB8424FF00300F5D987E700BF0B
:100EA000306A40F004003062306A40F00100306285
:100EB000FFF7A8FC054641F2883700BF306A80077B
:100EC00008D4FFF79FFC401BB842F7D9032002B0BB
:100ED000BDE8F081B8F1000F3FF59BAEF06920F05E
:100EE0008050F06195E600BF306820F480303060BB
:100EF000306820F480203060FFF784FC054600BF96
:100F0000306880037FF560AEFFF77CFC401B6428EF
:100F10004FF00300F4D94AE7306840F48020306095
:100F2000306840F480303060FFF76CFC054600BF4D
:100F3000306880033FF548AEFFF764FC401B64282F
:100F4000F6D9032002B0BDE8F08100BF206AB0F5F9
:100F5000803F05D17168A26821F4003111437160AE
:100F60007168626A21F474111143084370600120B2
:100F70003866FFF747FC0446306880013FF56DAFE7
:100F8000FFF740FC001B02284FF00300F4D90EE7E6
:100F900070B538B10446406A30B10020206104F1D8
:100FA000140007E0012070BD6068B0F5827F03D0B7
:100FB00004F11C00002101600026A66294F8510093
:100FC00020B9204684F8506000F038F8022084F8F8
:100FD000510094E8071001F48271036802F404429E
:100FE00023F040030360236911440CF400621144B0
:100FF00003F002026369114403F00102A369E56989
:10100000114403F40072114405F03802256A1144BA
:1010100005F08002A56A114305F4005211430160F6
:10102000042101EA13414160C16921F40061C161F9
:101030000120666584F85100304670BD70B586B0F9
:1010400040F60004C4F20104006804F520510026B3
:101050008842049602D006B070BD00BF41F218006D
:10106000C4F20200016802AD41F4805101600168E0
:1010700001F4805101910199016841F0040101607E
:101080000068294600F0040001900198A020029019
:1010900002200390032005902046FFF7A5FA402088
:1010A000CDE90206204629460496FFF79DFA06B0D0
:1010B00070BD0000411E0020B0EB116F1CBF01206D
:1010C00070474EF21002CEF2000251604EF62351EC
:1010D000CEF20001F0230B70072190601160704781
:1010E000704700007047000090F83C20012A4FF044
:1010F000020236D010B580F83D200268D2F804E034
:10110000D2F808C00C682EF07003234340F2FF743D
:10111000C4F20004A24253600ADCB2F1804F13D043
:1011200040F20043C4F200039A420DD011E000BF28
:1011300042F60043C4F201039A4205D040F6000390
:10114000C4F200039A4204D149682CF08003194389
:1011500091600121002280F83D1080F83C20BDE81C
:101160001040104670470000002804BF012070475F
:1011700010B5044690F83D0028B9002084F83C00E2
:10118000204600F067F8022084F83D00206840F215
:10119000FF730268C4F2000342F6004C9842C4F2A6
:1011A000010C15DCB0F1804F1AD040F20041C4F2BE
:1011B0000001884214D0984218DCB0F1804F1DD055
:1011C00040F20041C4F20001884217D01AE000BF8B
:1011D000604505D040F60001C4F200018842EAD122
:1011E000A16822F070020A439842E6DD604505D00E
:1011F00040F60001C4F20001884203D1216922F4C3
:1012000040720A43A36922F08001D4F804E0E26846
:10121000194360450160C262C0F828E002D16169EB
:10122000CCF8301001214161002084F8461084F888
:101230003E1084F83F1084F8401084F8411084F880
:10124000421084F8431084F8441084F8451084F860
:101250003D1010BD0068B0F1804F18BF704780B5D9
:1012600082B041F21C00C4F202000168002241F089
:10127000010101600068002100F001000190019867
:101280001C20FFF73FFB1C2002B0BDE88040FFF7A9
:1012900027BB000090F83C20012A4FF0020200F02A
:1012A000C58080B580F83D20D0F800C04FF6777239
:1012B000DCF8083023EA0202CCF808200B684F2B38
:1012C00028DC1F2B44DD202B45D0302B43D0402B76
:1012D00040F0AE80D1F804E0C968DCF82030DCF8DA
:1012E000202022F00102CCF82020DCF8182022F087
:1012F000F00242EA011123F00A0242EA0E02CCF89F
:101300001810CCF82020DCF8081041F0470121F03B
:10131000300180E06F2B27DDB3F5005F48D0B3F5D7
:10132000805F7AD0702B40F08380D1E901E3C968F7
:10133000DCF8082043EA0E0322F47F4243EA01214D
:101340001143CCF80810DCF8081041F0770162E096
:101350000BB1102B6CD1DCF8081021F0700119438F
:1013600041F0070157E000BF502B35D0602B5FD113
:10137000D1F804E0C968DCF82030DCF8202022F045
:101380001002CCF82020DCF8182022F4704242EA47
:10139000013123F0A00242EA0E12CCF81810CCF86A
:1013A0002020DCF8081041F0670121F0100132E044
:1013B000D1E901E3C968DCF8082043EA0E0322F40E
:1013C0007F4243EA01211143CCF80810DCF80810F1
:1013D00041F480411FE000BFD1F804E0C968DCF8A7
:1013E0002030DCF8202022F00102CCF82020DCF8AC
:1013F000182022F0F00242EA011123F00A0242EA28
:101400000E02CCF81810CCF82020DCF8081041F0BF
:10141000570121F02001CCF808100022012180F8AA
:101420003D10002180F83C10BDE880401046704718
:101430000122F3E77047000010B50168044608690F
:10144000800744BFC8685FEA807039D408694007E4
:1014500044BFC8685FEA40703ED40869000744BFD3
:10146000C8685FEA007045D40869C00644BFC86810
:101470005FEAC0604AD40869C0071CBFC8685FEA59
:10148000C07051D10869000644BFC8685FEA0060B7
:1014900052D40869400644BFC8685FEA406053D42C
:1014A0000869800646BFC8685FEA806010BD6FF0BB
:1014B000200220460A61BDE81040FFF713BE00BFBE
:1014C0006FF002000861012020778869800743D00F
:1014D0002046FFF7AFFF45E06FF0040008610220EF
:1014E0002077886910F4407F40D02046FFF7A2FFA4
:1014F00042E000BF6FF00800086104202077C8694F
:1015000080073DD02046FFF795FF3FE06FF01000C9
:10151000086108202077C86910F4407F3AD020463F
:10152000FFF788FF3CE000BF6FF001000861204634
:1015300000F03EF82168A5E76FF0800008612046C2
:10154000FFF7CEFD2168A4E76FF040000861204658
:1015500000F030F82168A3E7204600F025F8204687
:1015600000F024F82168002020776FE7204600F083
:101570001BF8204600F01AF82168002020776CE75D
:10158000204600F011F8204600F010F821680020F5
:10159000207769E7204600F007F8204600F006F8BB
:1015A00021680020207766E7704700007047000040
:1015B000704700007047000070470000704700004F
:1015C000B0B582B0044600680168C368426901F0A2
:1015D0002F05202D03F0200506D12DB1204602B0A5
:1015E000BDE8B04000F040BE5FEA017C1EBF02F0E3
:1015F000010E03F4907212EB0E0243D1226BCD0662
:1016000018D5012A16D113F0100213D00021019130
:1016100001680191416801910199406940063BD4FC
:10162000A08DE18DE28D002A18BF884240F0F28142
:1016300002B0B0BD0A0640F1E78013F0800200F06E
:10164000E38094F841102129F2D1A168B1F5805FBF
:1016500003D12169002900F06382216A4A1C2262B9
:1016600009784160E18C01390A04E184E0D1C16864
:1016700021F08001C160C16841F04001C16002B049
:10168000B0BD00BFCA0718BF13F4807240F0D0800D
:101690004A0700F1D380D8E0E06B016849688AB25C
:1016A000002AC5D0A38D9A42C2D2E1858069202844
:1016B00000F09E80206850E8030F216820F48070BD
:1016C00041E80302DAB1206850E8030F216820F4F2
:1016D000807041E8030292B1206850E8030F21684E
:1016E00020F4807041E803024AB1206850E8030FFB
:1016F000216820F4807041E80302002ADAD12068D2
:1017000050E8050F216820F0010041E80502C2B34E
:10171000206850E8050F216820F0010041E805022B
:101720007AB3206850E8050F216820F0010041E8F5
:10173000050232B3206850E8050F216820F001004F
:1017400041E80502002ADAD11BE000BF206850E81A
:10175000050F216820F0400041E80502DAB1206859
:1017600050E8050F216820F0400041E8050292B1E1
:10177000206850E8050F216820F0400041E805028C
:101780004AB1206850E8050F216820F0400041E888
:101790000502002ADAD1202084F8420000202063CC
:1017A000206850E8030F216820F0100041E8030290
:1017B000DAB1206850E8030F216820F0100041E8FA
:1017C000030292B1206850E8030F216820F0100056
:1017D00041E803024AB1206850E8030F216820F075
:1017E000100041E80302002ADAD1E06BFEF756FD53
:1017F00002206063A08DE18D401A81B2204602B0C4
:10180000BDE8B040FFF7D8BE49067FF511AF13F031
:1018100040013FF40DAFC16821F04001C1602021BB
:10182000204684F8411002B0BDE8B04000F0E6BBAD
:10183000626C42F0010262644A0706D5BEF1000FF5
:1018400003D0626C42F0020262648A0706D5BEF1E0
:10185000000F03D0626C42F004026264BCF1000F1E
:1018600006D55EEA050203D0626C42F008026264AB
:10187000626C002A3FF4DCAE890604D51DB1204617
:1018800000F0F2FC20684069616C00F0400001F05B
:101890000801401800F0B680206850E8030F216866
:1018A00020F4907041E80302BAB3206850E8030FB7
:1018B000216820F4907041E8030272B3206850E878
:1018C000030F216820F4907041E803022AB32068D6
:1018D00050E8030F216820F4907041E80302002AC9
:1018E000DAD11AE0206850E8050F216820F00100E5
:1018F00041E80502DAB1206850E8050F216820F0C0
:10190000010041E8050292B1206850E8050F216806
:1019100020F0010041E805024AB1206850E8050FB7
:10192000216820F0010041E80502002ADAD1206B8D
:10193000012824D1206850E8030F216820F010000E
:1019400041E80302DAB1206850E8030F216820F073
:10195000100041E8030292B1206850E8030F2168AB
:1019600020F0100041E803024AB1206850E8030F5C
:10197000216820F0100041E80302002ADAD120207B
:1019800084F842000020206320684069400640F14E
:10199000C180206850E8050F216820F0400041E830
:1019A0000502DAB1206850E8050F216820F04000F8
:1019B00041E8050292B1206850E8050F216820F047
:1019C000400041E805024AB1206850E8050F21684F
:1019D00020F0400041E80502002ADAD1E06B00283F
:1019E00000F0988042F25D21C0F600014163FEF7ED
:1019F00079FC00283FF41CAEE06B416B02B0BDE8FF
:101A0000B04008472046FFF7D9FD0020606402B0CF
:101A1000B0BD00BF401A00BF216851E8031F226813
:101A200021F4907142E80313BBB3216851E8031F0E
:101A3000226821F4907142E8031373B3216851E8DE
:101A4000031F226821F4907142E803132BB321682D
:101A500051E8031F226821F4907142E80313002B20
:101A6000DAD11AE0216851E8051F226821F001014E
:101A700042E80513DBB1216851E8051F226821F017
:101A8000010142E8051393B1216851E8051F22685E
:101A900021F0010142E805134BB1216851E8051F0F
:101AA000226821F0010142E80513002BDAD1202140
:101AB00084F8421000212163216851E8031F226845
:101AC00021F0100142E80313DBB1216851E8031F44
:101AD000226821F0100142E8031393B1216851E814
:101AE000031F226821F0100142E803134BB1216863
:101AF00051E8031F226821F0100142E80313002B74
:101B0000DAD1022281B22046626302B0BDE8B04061
:101B1000FFF752BD204602B0BDE8B040FFF74EBD12
:101B2000216A31F8022B6FF35F224260216299E54E
:101B3000002804BF0120704710B5044690F841000A
:101B400028B9002084F84000204600F063F82420E3
:101B500084F841002068D4E90212C36823F40053DA
:101B6000C360036923F440531A430261D4E9042398
:101B70001143C268194341F20C639A431143C16097
:101B80004169A26921F44071114343F60002C4F295
:101B900001029042416103D0FEF7D2FF02E000BF94
:101BA000FEF7E2FFD4E90023192148439900B0FB76
:101BB000F1F048F21F5CC5F2EB1CA0FB0C314FF6B4
:101BC0009C734909C0F6FF7301FB0300322303EB4A
:101BD0000010A0FB0C03F02000EA531000EB0110F2
:101BE000C3F34311084490601069202120F4904011
:101BF0001061506920F02A005061D06840F4005014
:101C0000D0600020606484F8411084F84210606362
:101C100010BD00002DE9F04186B00446006844F292
:101C20000041C4F20001002788420597CDE90377FF
:101C3000029739D043F60001C4F20101884240F016
:101C40009B8041F21800C4F20200016840F60004D3
:101C500041F4804101600168C4F2010401F4804153
:101C600001910199016802AD41F004010160006831
:101C7000294600F00400019001984FF40070029092
:101C800002200390032005902046FEF7ADFC4FF4A0
:101C9000806002900020CDE9030020462946FEF72F
:101CA000A3FC252460E000BF41F21800C4F202004A
:101CB000416840F6000541F4003141604168C4F2DA
:101CC000010501F4003101910199016802AE41F072
:101CD00004010160006840F26C0800F0040001900B
:101CE00001980420029002200390032005902846CA
:101CF0003146C4F20208FEF777FC0820CDE902075E
:101D0000284631460497FEF76FFC40F2B40508F10F
:101D10001400C2F200051021802685E883002846C1
:101D2000C5E90367C5E90577EF61FEF705FC002803
:101D300018BFFEF7ADFAA5636C6240F27005C2F2FF
:101D400000050020C5E90080C5E90206C5E90400D8
:101D5000C5E906002846FEF7EFFB002818BFFEF78E
:101D600097FAE5636C622624204600210022FEF7E4
:101D7000C9FD2046FEF7B4FD06B0BDE8F0810000C5
:101D8000704700002DE9F04381B0044690F841000F
:101D9000202840F0B180884600294FF0010000F073
:101DA000D6801646002A00F0D280002060642120F0
:101DB0001D4684F84100FEF725FDA684E684A1684F
:101DC0000646B1F5805F03D12069002800F09880B5
:101DD00047464FF00008E18C2068002900F096800B
:101DE00005F101090BE000BF47B317F8011B416083
:101DF000E18C0139E184E18C002900F087800168E1
:101E00000906F1D4B9F1000F0AD0EDB1FEF7FAFCE2
:101E1000801BA84218D8206801680906F6D5E3E7B8
:101E200001680906E0D4016809065CBF01685FEA41
:101E30000161D9D401680906F2D5D5E738F8021B4B
:101E400000276FF35F21D2E7206850E8030F216875
:101E500020F4D07041E80302BAB3206850E8030FC1
:101E6000216820F4D07041E8030272B3206850E882
:101E7000030F216820F4D07041E803022AB32068E0
:101E800050E8030F216820F4D07041E80302002AD3
:101E9000DAD11AE0206850E8050F216820F001002F
:101EA00041E80502DAB1206850E8050F216820F00A
:101EB000010041E8050292B1206850E8050F216851
:101EC00020F0010041E805024AB1206850E8050F02
:101ED000216820F0010041E80502002ADAD1202023
:101EE00084F8410084F84200002084F84000032078
:101EF00001B0BDE8F08300BF022001B0BDE8F0836F
:101F00000027E18C206800297FF46AAF0168490648
:101F100019D4FDB1691C0DD10168490613D40168BB
:101F200049065CBF01685FEA41610CD4016849065B
:101F3000F2D508E0FEF766FC801BA8420AD82068AC
:101F400000684006F6D5202084F84100002001B04A
:101F5000BDE8F083206850E8030F216820F4D070BA
:101F600041E80302002A3ED0206850E8030F2168B0
:101F700020F4D07041E80302AAB3206850E8030FB0
:101F8000216820F4D07041E8030262B3206850E871
:101F9000030F216820F4D07041E80302002AD9D150
:101FA00021E000BF206850E8050F216820F0010003
:101FB00041E80502002A3FF492AF206850E8050F7F
:101FC000216820F0010041E80502002A3FF487AFB4
:101FD000206850E8050F216820F0010041E8050263
:101FE000002A3FF47CAF206850E8050F216820F0FC
:101FF000010041E80502002AD4D170E770470000D3
:10200000FEE7000080B582B041F21400C4F2020085
:102010000168002241F0010101600068002100F028
:102020000100019001981020FEF76CFC1020FEF7D3
:1020300057FC112000210022FEF764FC112002B0A1
:10204000BDE88040FEF74CBC2DE9F04784B041F27A
:102050001800C4F20200016840F6004A41F0100185
:1020600001600168C4F2010A01F0100100910099B9
:1020700001680AF5806541F02001016001680022D5
:1020800001F020010091009901684FF4005641F0E1
:102090000401016001684FF0000901F004010091A2
:1020A0000099016841F00801016000684FF4005197
:1020B00000F00800009000982846FEF79DFB50466F
:1020C0004FF4405100224FF44058FEF795FB009624
:1020D0006E460127022428463146CDE90179039452
:1020E000FEF782FA50463146CDE90087CDE90294E9
:1020F000FEF77AFA04B0BDE8F087000010B540F2B0
:10210000F80043F20001C2F20000C4F201014FF4F2
:102110008272002380E80E0000F10C014FF0020CE7
:102120004FF0010E4FF4007481E808500A21C0E915
:102130000643C0E90833C0E90A31FEF729FF002849
:1021400008BF10BDBDE81040FEF7A2B880B586B04C
:1021500040F250100021C2F2000040F2E73C05912D
:10216000CDE90311CDE900114FF080422323C0E9EE
:10217000021C01618021C0E900238161FEF7F4FFA8
:10218000002818BFFEF784F84FF48050029040F208
:102190005010C2F2000002A9FFF77CF8002818BF17
:1021A000FEF776F840F25010C2F200006946FEF7E2
:1021B0009BFF002818BFFEF76BF806B080BD00003B
:1021C00080B540F2981043F60001C2F20000C4F25C
:1021D000010100234FF00C0C4FF4E13280E80E00B7
:1021E000C0E90333C0E905C3C361FFF7A1FC0028C0
:1021F00008BF80BDBDE88040FEF74AB880B540F218
:10220000E01044F20041C2F20000C4F200010023D9
:102210004FF00C0C4FF4E13280E80E00C0E90333BC
:10222000C0E905C3C361FFF783FC002808BF80BD78
:10223000BDE88040FEF72CB8FEE70000FEE7000096
:102240007047000070470000FEF7E2BA70470000D8
:1022500040F25010C2F20000FFF7EEB8406A0021D1
:10226000C185C184FFF7AAB981B090F84210222934
:1022700021D183680246B3F5805F09D152F8281F47
:1022800052F8183C002B63D003685B680AE000BF7B
:1022900052F8281F13B90369002BF5D003685B6857
:1022A00003F07F030B70116801311160C18D01399A
:1022B0000A04C18502D001B0704700BF0168CA6836
:1022C00022F02002CA60CA6822F48072CA604A6999
:1022D00022F001024A61202180F84210002141636E
:1022E000026B012A3CD10163016851E8031F0268B7
:1022F00021F0100142E80313DBB1016851E8031F2C
:10230000026821F0100142E8031393B1016851E81B
:10231000031F026821F0100142E803134BB101686A
:1023200051E8031F026821F0100142E80313002B5B
:10233000DAD101680A68D20606D5002200920A683E
:102340000092496800910099818D01B0FFF734B97E
:10235000026852686FF35F2221F8022B8162A5E7C1
:1023600001B0FFF70DBD000040F29810C2F200006E
:10237000FFF726B940F2E010C2F20000FFF720B9E3
:10238000FEE7000090B023208DF80300FEF74EFA20
:1023900000240120CDE90B44CDE9094406900A90C0
:1023A0004FF4E0104FF4803102250F9006A8CDE9DC
:1023B0000714CDE90D51FEF7EBFB28B1EFF31080C8
:1023C00072B600BFFEE700BF0F20CDE901058020F7
:1023D000CDE9030401A802210594FEF7CFFA28B144
:1023E000EFF3108072B600BFFEE700BFFFF72CFED0
:1023F000FFF708FEFFF7E4FEFFF700FFFFF77EFEA2
:10240000FFF7A4FE40F29814C2F200040DF1030598
:102410004FF47A70FEF7D4F82046294601224FF493
:102420007A73FFF7AFFCF3E7000000000000000044
:10243000010203040607080900000000010203046A
:10244000010202030405060708090A0B0C0D0E0F12
:102450001010000078240008000000201000000088
:102460005001000888240008100000202008000007
:1024700070010008000000000100000010000000D2
:082480000024F400000000003C
:04000005080000ED02
:00000001FF
