:020000040800F2
:100000000005002001010008252A000869280008D1
:10001000212A0008750800080D2D000800000000C6
:10002000000000000000000000000000112B00088C
:100030007908000800000000292A0008E12B0008C8
:100040001B0100081B0100081B0100081B01000820
:100050001B0100081B0100081B0100081B01000810
:100060001B0100081B0100081B0100081B01000800
:100070001B0100081B0100081B0100081B010008F0
:100080001B0100081B0100081B0100081B010008E0
:100090001B0100081B0100081B0100081B010008D0
:1000A0001B0100081B0100081B0100081B010008C0
:1000B0001B0100081B010008E92B00081B010008B8
:1000C0001B0100081B0100081B0100081B010008A0
:1000D0001B0100081B010008012D00081B0100087E
:1000E0001B0100081B0100081B010008DFF80CD0F1
:1000F00000F074FA00480047312D00080005002088
:100100000648804706480047FEE7FEE7FEE7FEE7B1
:10011000FEE7FEE7FEE7FEE7FEE7FEE7E52B000869
:10012000ED0000082DE9F04D81EA030404F0004BD6
:1001300021F0004514464FF0000A23F0004150EA38
:10014000050220D054EA01021DD0C5F30A57024629
:10015000C5F31303C1F31300C1F30A5640F480152D
:1001600043F48013A7EB0608101BD64608F2FD38AF
:1001700073EB050002D308F1010801E092185B411E
:10018000B8F1000F03DA00200146BDE8F08D002031
:100190004FF48011064684460EE0171B73EB0507EB
:1001A00005D3121B63EB050306434CEA010C490817
:1001B0004FEA300092185B4150EA0107EDD152EA54
:1001C000030012D082EA040083EA0501084305D047
:1001D000101BAB4106D20122002306E000224FF0A3
:1001E000004302E06FF0010253101AEB06004CEBE3
:1001F000085110EB0A0041EB0B01BDE8F04D00F097
:1002000047B830B50B46014600202022012409E002
:1002100021FA02F59D4205D303FA02F5491B04FABF
:1002200002F52844151EA2F10102F1DC30BD2DE9D2
:10023000F05F0546002092469B468846064681466A
:1002400040241BE0284641464746224600F0EDF98F
:1002500053465A46C01A914110D3114618462246B9
:1002600000F0D4F92D1A67EB01084F462246012011
:10027000002100F0CBF917EB00094E41201EA4F13C
:100280000104DFDC484631462A464346BDE8F09F7C
:1002900010B5141E73F1000408DA401C41F100018E
:1002A00092185B411A4301D120F0010010BD2DE9E5
:1002B000F04D92469B4611B1B1FA81F202E0B0FADC
:1002C00080F22032904600F0A1F904460F4640EA41
:1002D0000A0041EA0B0153465A46084313D011461F
:1002E00053EA010019D0C8F14002504600F09DF9D0
:1002F00005460E4650465946424600F087F90843E7
:1003000005D0012004E020463946BDE8F08D0020EC
:10031000054346EAE0762C4337430A986305E40A2E
:10032000A0EB08000022FD0A44EA47540A3002D537
:1003300000200146E9E7010510196941DDE908459A
:1003400000196941BDE8F04DA2E72DE9FE4F804656
:1003500081EA0300C00F0C46009021F0004123F019
:100360000045B8EB0200A94105D24046214690461F
:100370001C460B46024623F00040104347D0270D91
:10038000C7F30A00C3F30A510290401A01904028B3
:100390006BDAC3F3130040F4801B0098924620B13F
:1003A0000023D2EB030A63EB0B0B01985946C0F113
:1003B0004002504600F02AF906460D46504659467E
:1003C000019A00F042F910EB08006141002487EA2D
:1003D000115284EAE7731A4340D0009A62B3019A3B
:1003E000012A4FEA075215DC001B61EB02014FF0B6
:1003F000004202EA0752CDE90042001C41F580119B
:1004000032462B46FFF753FF03B0BDE8F08F40465E
:100410002146F9E7001B61EB0201001C41F5801346
:1004200000185B412018A2F5001747EB030140EAD2
:10043000D570B6196D4111E06D084FEA360645EAF0
:10044000C0754FEA0752001B61EB0201001C41F529
:10045000801149084FEA30000019514132462B46BD
:1004600003B0BDE8F04FFFF713BF00980122400032
:100470000023D0EB020263EBE073009821464FEAC1
:10048000E074B8EB000061EB0401E9E783F000439E
:100490005BE781F0004158E72DE9FE4F81EA030454
:1004A00004F0004421F0004100944FF0000B23F0D1
:1004B000004350EA01045ED052EA03045BD0C3F368
:1004C0000A54C1F30A552C44A4F2F3340194A0FB5E
:1004D0000254C1F3130141F48011C3F3130343F435
:1004E000801301FB024400FB034E840A970A44EA8E
:1004F000815447EA8357A4FB076802958D0A05FBE0
:1005000007854FEA932C04FB0C542705029D4FEA04
:10051000065847EA1637B5EB08056EEB070C870E51
:10052000920E47EA811742EA8312A7FB0201B6EB5B
:100530000B0164EB00042B0D43EA0C335E1844EB13
:100540001C50DA465146E7FB0201C5F313044FEA9B
:100550000B3343EA14534FEA0432019C43EA060387
:10056000A4F10C040294009CCDE900B4FFF79FFEB7
:1005700003B0BDE8F08F00200146F9E7C1F30A524D
:10058000C1F3130140F2FF3341F480119A4202DAC1
:1005900000200146704740F233439A42A2F23342B0
:1005A00002DC524200F041B800F030B830B5041E11
:1005B00071F1000404DB4FF00044404264EB0101A0
:1005C000141E73F1000405DB1C464FF00043524239
:1005D00063EB0403994208BF904230BD1CB5094843
:1005E0000090094801900546009C06E0E06840F054
:1005F000010394E8070098471034AC42F6D3FFF7A4
:1006000079FD00001437000834370008202A04DB85
:10061000203A00FA02F1002070479140C2F1200315
:1006200020FA03F3194390407047202A04DB203A54
:1006300021FA02F00021704721FA02F3D040C2F102
:1006400020029140084319467047202A06DBCB1749
:10065000203A41FA02F043EAE07306E041FA02F37D
:10066000D040C2F120029140084319467047000073
:100670002DE9F04383B040F60045C4F201059046F1
:100680000F46064628464FF40061012200F096FA14
:100690000A2000F077F952208DF80800002428463F
:1006A0004FF4805100228DF809608DF8074000F06A
:1006B00085FA40F21006C2F2000602A93046012275
:1006C0004FF47A734FF47A7900F0D8FE0DF10701F8
:1006D000304601224FF47A7300F0D0FE0DF109018B
:1006E000304601224FF47A7300F0C8FE9DF80800EE
:1006F0000DF10B018DF80B000DF10A0230460123BC
:10070000CDF8009000F0B6FF28464FF4805101224A
:1007100000F054FA53208DF8080028464FF4805119
:1007200000228DF809708DF8074000F047FA02A901
:10073000304601224FF47A7300F0A0FE0DF107015C
:10074000304601224FF47A7300F098FE0DF1090152
:10075000304601224FF47A7300F090FE9DF80800B5
:100760000DF10B018DF80B000DF10A02304601234B
:10077000CDF8009000F07EFF28464FF48051012212
:1007800000F01CFA06208DF8090050208DF80800B2
:1007900028464FF4805100228DF8074000F00EFAF1
:1007A00002A9304601224FF47A7300F067FE0DF182
:1007B0000701304601224FF47A7300F05FFE0DF11D
:1007C0000901304601224FF47A7300F057FE9DF87C
:1007D00008000DF10B018DF80B000DF10A023046F7
:1007E0000123CDF8009000F045FF28464FF48051DA
:1007F000012200F0E3F954208DF8080028464FF458
:10080000805100228DF809408DF8074000F0D6F99C
:1008100002A9304601224FF47A7300F02FFE0DF149
:100820000701304601224FF47A7300F027FE0DF1E4
:100830000901304601224FF47A7300F01FFE9DF843
:1008400008000DF10B018DF80B000DF10A02304686
:100850000123CDF8009000F00DFF28464FF48051A1
:10086000012200F0ABF9404602F054F903B0BDE8B4
:10087000F0830000FEE7000070470000EFF31080F7
:1008800072B600BFFEE70000014690F82100022882
:1008900016D10868D1E90FC3026822F00E02026087
:1008A000026822F001020260012000FA03F2CCF893
:1008B000042081F821000020002281F820207047C8
:1008C000042088630120002281F820207047000066
:1008D00090F82110022923D10268116821F00E013D
:1008E00011602F211368C4F202018A4240F2040110
:1008F000C4F2020123F00103136015DD3023C4F2BA
:1009000002039A421CD04423C4F202039A421BD031
:100910005823C4F202039A421CD14FF4803321E0E1
:1009200004218163012070470823C4F202039A4224
:100930000ED01C23C4F202039A420BD1102311E003
:100940004FF480730EE000BF4FF480530AE000BF05
:10095000012307E001F1680C4FF08073624508BF86
:100960004FF480130B60012180F82110426B0021AD
:1009700080F8201022B180B590470021BDE880406A
:1009800008467047B0B5044600F01EF9054640F22F
:100990000400C2F200000078611C18BF044400BFCC
:1009A00000F012F9401BA042FAD3B0BD2DE9F04F80
:1009B00082B00E68002E00F0FD8041F20042C4F2C9
:1009C0000102042340F2004E904208BF03234FF679
:1009D000FF7CC4F2010E009300240123C1F2100C2D
:1009E0004FF0000A4FF0000944E000BF012704F077
:1009F0000C030F229A402BEA020207FA03F34FEA94
:100A00009A051A4346F825204E6840F20C45F2023A
:100A1000DEF8082054BF22EA080242EA0802C4F2C3
:100A20000105CEF808202A68B30254BF22EA080262
:100A300042EA08022A60B303DEF8042054BF22EA27
:100A4000080242EA0802F303CEF80420DEF8002090
:100A50004FF0010354BF22EA080242EA0802CEF82E
:100A600000200E680AF1010A36FA0AF204F10404C1
:100A700000F0A08003FA0AFB16EA0B08F1D04E68DA
:100A8000664511DC122E55D8DFE806F0340A4448DA
:100A9000545454545454545454545454544C500076
:100AA000D1F80C9046E000BF4FF6FF72C1F2210270
:100AB00096420FDC0022C1F2110296421AD00022A7
:100AC000C1F21202964215D00022C1F221029642D2
:100AD00010D02FE00022C1F2220296420AD000225A
:100AE000C1F23102964205D00022C1F23202964292
:100AF00020D100BF8A684AB1012A14BFC0F814B0DF
:100B0000C0F810B04FF0080914E000BF4FF004091E
:100B100010E000BFCA6802F108090BE04FF00009BD
:100B200008E000BFCA6802F1040903E0CA6802F1E4
:100B30000C0900BF22460646B8F5807F24BF203A44
:100B4000043637680F25954027EA050509FA02F2B1
:100B50002A433260CA79D2067FF583AF41F2180387
:100B6000C4F202031A68AEF57E7642F001021A6002
:100B70001A6802F001020192019A2AF0030256F863
:100B800002B040F60002C4F20102904210D040F6DA
:100B90000042C4F2010290423FF428AF41F2000249
:100BA000C4F20102009F904208BF02271FE700BF66
:100BB00000271CE702B0BDE8F08F0000002A08BF44
:100BC000090401617047000040F2FC00C2F200001D
:100BD0000068704740F2040040F2FC01C2F20000DD
:100BE000C2F2000100780A681044086070470000F3
:100BF00080B542F20000C4F20200016841F0100129
:100C00000160032000F08CF80F2000F005F800F0E0
:100C100027F8002080BD000070B540F20406C2F243
:100C2000000640F20C013278C2F200014FF47A73F0
:100C30000968B3FBF2F20446B1FBF2F1084600F09A
:100C400083FE0F2C4FF0010508D838B94FF0FF3064
:100C500021460022002500F037F87460284670BD58
:100C600082B041F21800C4F202000168022241F091
:100C700001010160016801F00101019101994168E0
:100C800041F080514160406800F080500090009831
:100C90000420C4F20100016862F31A61016002B02D
:100CA00070470000002848BF704700F01F01012274
:100CB00002FA01F11C2202EAD0004EF20012CEF23A
:100CC000000281507047000010B54EF60C5CCEF269
:100CD000000CDCF80030C3F3022E8EF00704042C65
:100CE00028BF0424BEF103034FF0FF3E0EFA04F4C4
:100CF00038BF0023A14399400EFA03F39A431143EE
:100D000000F00F0200F160430901043A03F5644367
:100D10006244002848BF02F10C03197010BD0000A6
:100D20004EF60C51CEF200010A684FF6FF031A404E
:100D300060F30A2242F0806040F0FD700860704766
:100D4000002804BF012070472DE9F04381B042F232
:100D50000008C4F202080446D8F800000D4600F06E
:100D6000070088420CD2D8F8000020F00700284382
:100D7000C8F80000D8F8000000F00700A8426CD1C5
:100D8000206841F204098107C4F2020917D541071E
:100D900005D5D9F8001041F4E061C9F80010010749
:100DA00005D5D9F8001041F46051C9F80010D9F800
:100DB0000010A26821F0F0011143C9F80010C0072B
:100DC00042D1D8F8000000F00700A8420CD9D8F8AA
:100DD000000020F007002843C8F80000D8F8000001
:100DE00000F00700A84238D12068410707D5D9F89C
:100DF0000010E26821F4E0611143C9F80010000717
:100E000008D5D9F80000216920F4605040EAC100FB
:100E1000C9F80000D9F8002002F00C00082841F2BF
:100E20000020C0F27A0051D143F20273C2F3834131
:100E3000C0F60003595CD2033CD440F60010C0F267
:100E40003D00484342E000BF606802280AD0012804
:100E50002AD159F8041C890308D4012001B0BDE847
:100E6000F08300BF59F8041C8901F6D5D9F80010A9
:100E700021F003010843C9F80000FFF7A5FE06466C
:100E800041F28837D9F80000616800F00C00B0EB3F
:100E9000810F96D0FFF798FE801BB842F2D903204D
:100EA00001B0BDE8F08300BF59F8041C8907D4D510
:100EB000DCE700BFD9F8002043F20073C2F34042E0
:100EC000C0F600039A5C4843B0FBF2F0D9F800107A
:100ED00043F2E862C1F30311C0F60002515C40F234
:100EE0000C0220FA01F140F20800C2F20000006892
:100EF000C2F200021160FFF78FFE002001B0BDE8D2
:100F0000F083000040F20C0041F20401C2F2000044
:100F1000C4F202010068096843F2F862C1F30221D9
:100F2000C0F60002515CC8407047000040F20C005F
:100F300041F20401C2F20000C4F202010068096833
:100F400043F2F862C1F3C221C0F60002515CC8400E
:100F500070470000002804BF012070472DE9F041D0
:100F600082B00446007841F20006C007C4F20206CF
:100F70000CD0706800F00C00042840F081803068CC
:100F8000800303D56068002800F04E812078800738
:100F90001BD5706810F00C0F09D0706800F00C00C1
:100FA000082840F08B807068C00300F187803068AB
:100FB000800703D52069012840F0368130686169D7
:100FC00020F0F80040EAC10030602078000713D418
:100FD000207840072CD4E569002D00F0208170684E
:100FE00000F00C00082840F0AF80012D40F00C818B
:100FF000012002B0BDE8F081A069002800F08C80DB
:101000000020C4F242200121C0F88014FFF7DCFD6B
:10101000054600BF706A800700F1BA80FFF7D4FD73
:10102000401B0228F6D9032002B0BDE8F08100BFC2
:10103000F0695FEAC00808D4F06940F08050F061C0
:10104000F06900F080500090009847F20007C4F269
:1010500000073868C0054DD4386840F480703860A7
:10106000FFF7B2FD054600BF3868C00542D4FFF760
:10107000ABFD401B6428F7D9032002B0BDE8F08126
:10108000706800F00C00082803D17068C0033FF5B9
:1010900076AF6068002800F00981B0F5A02F00F05D
:1010A0001D81B0F5803F00F01D81306820F4803054
:1010B0003060306820F4802017E100BF20690028EC
:1010C00040F20000C4F2422000F08C800121016057
:1010D000FFF77AFD054600BF306880073FF56EAF29
:1010E000FFF772FD401B0228F6D9032002B0BDE8CD
:1010F000F08100BFE068002800F09A80052800F029
:10110000B180012800F0B280306A20F00100306226
:10111000306A20F00400ACE00020C4F2422000213C
:10112000C0F88014FFF750FD054600BF706A8007C5
:101130007FF54EAFFFF748FD401B0228F6D903208C
:1011400002B0BDE8F08100BF0027C4F242270020B2
:101150003866FFF739FD022D05460DD13068800154
:1011600040F1D680FFF730FD401B02284FF003000E
:10117000F4D902B0BDE8F081306880014FD5FFF7A7
:1011800023FD401B02284FF00300F5D9F1E700BF13
:1011900040F20C00C2F20000006844F6D351C1F2E4
:1011A0006201A0FB0101480A019000BF00BF019845
:1011B000411E002801913FF40BAF00BF0198411E72
:1011C000002801913FF404AF00BF0198411E0028A0
:1011D00001913FF4FDAE00BF0198411E002801912E
:1011E000E4D1F5E600210160FFF7EEFC054600BF03
:1011F000306880077FF5E9AEFFF7E6FC401B022868
:101200004FF00300F4D9B4E77068216A00F480322B
:101210008A4209D1616A00F47010884204D100202A
:1012200002B0BDE8F08100BF012002B0BDE8F0814E
:10123000306A20F001003062306A20F00400306231
:10124000FFF7C2FC054641F2883700BF306A8007CD
:1012500022D5FFF7B9FC401BB8424FF00300F5D987
:1012600087E700BF306A40F004003062306A40F027
:1012700001003062FFF7A8FC054641F2883700BF45
:10128000306A800708D4FFF79FFC401BB842F7D9AB
:10129000032002B0BDE8F081B8F1000F3FF59BAE2E
:1012A000F06920F08050F06195E600BF306820F4CE
:1012B00080303060306820F480203060FFF784FC9C
:1012C000054600BF306880037FF560AEFFF77CFC09
:1012D000401B64284FF00300F4D94AE7306840F41B
:1012E00080203060306840F480303060FFF76CFC64
:1012F000054600BF306880033FF548AEFFF764FC49
:10130000401B6428F6D9032002B0BDE8F08100BF7D
:10131000206AB0F5803F05D17168A26821F40031E0
:10132000114371607168626A21F4741111430843BA
:10133000706001203866FFF747FC04463068800182
:101340003FF56DAFFFF740FC001B02284FF0030094
:10135000F4D90EE770B538B10446406A30B10020C8
:10136000206104F1140007E0012070BD6068B0F551
:10137000827F03D004F11C00002101600026A662D8
:1013800094F8510020B9204684F8506000F038F8F5
:10139000022084F8510094E8071001F48271036878
:1013A00002F4044223F040030360236911440CF467
:1013B0000062114403F002026369114403F0010268
:1013C000A369E569114403F40072114405F0380281
:1013D000256A114405F08002A56A114305F4005204
:1013E00011430160042101EA13414160C16921F404
:1013F0000061C1610120666584F85100304670BD0E
:1014000070B586B040F60044C4F201040068A4F54B
:10141000544100268842049602D006B070BD00BF39
:1014200041F21800C4F20200416802AD41F480416B
:101430004160416801F4804101910199016841F0E6
:10144000080101600068294600F008000190019839
:101450004FF4204002900220039003200590204684
:10146000FFF7A4FA4FF48040CDE902062046294652
:101470000496FFF79BFA06B070BD00002DE9F0411D
:1014800082B0044690F85000012803D1022002B037
:10149000BDE8F08101201D4616460F4684F8500035
:1014A000FFF792FB94F8511001290DD18046002FCF
:1014B0004FF0010018BF002E0ED1002184F850100B
:1014C00002B0BDE8F08100BF0220002184F8501076
:1014D00002B0BDE8F08100BF0320002184F8510074
:1014E00061652763A686E686A163A187E187A06878
:1014F0002164B0F5004F2068616407D1016821F0D4
:1015000040010160016841F48041016001684906C1
:1015100003D4016841F0400101606168731EE26814
:10152000B1FA81F1B3FA83F349095B09B2F5006FAF
:1015300041EA03013AD131B137F8021BC160276398
:10154000E08E0138E086E08E002869D0681C0CD15E
:101550001BE000BF216B31F8022BC2602163E08EDB
:101560000138E086E08E00285AD02068816889071B
:10157000F0D4FFF729FBA0EB0800A842F2D338E033
:10158000FFF722FBE08E00284AD020688168890797
:10159000F6D5216B31F8022BC2602163E08E013851
:1015A000E086E08E0028F0D13AE000BF39B139780A
:1015B0000173206B01302063E08E0138E086E08EFD
:1015C00070B3681C0BD11BE0216B09780173206B91
:1015D00001302063E08E0138E086E08E00B32068A1
:1015E00081688907F0D4FFF7EFFAA0EB0800A84262
:1015F000F3D3032035E000BFFFF7E6FAE08E78B1C1
:10160000206881688907F7D5216B09780173206B01
:1016100001302063E08E0138E086E08E0028EFD1B3
:10162000204680212A46434601F000FA28B1606D29
:1016300040F02000606520206065A06838B9002077
:1016400001902068C1680191806801900198606DE7
:1016500030B10120002184F8501002B0BDE8F081C3
:101660000020012184F85110002184F8501002B0AC
:10167000BDE8F0812DE9F04381B0044690F85000B8
:10168000012803D1022001B0BDE8F08301201E46ED
:1016900015460F4684F85000FFF796FA94F851105B
:1016A000814601290CD1002F4FF0010018BF002DF9
:1016B00014D1002184F8501001B0BDE8F08300BFC0
:1016C0006068B0F5827F40F0998004294FF00200F5
:1016D000EFD1A1680029E6D0EBE700BF002EE8D0EB
:1016E00094F85100002104281CBF052084F8510003
:1016F0006165A563E687A6872763E6862068A686D8
:10170000216461640168490603D4016841F0400125
:1017100001606168731EE268B1FA81F1B3FA83F384
:10172000DDF8208049095B09B2F5006F41EA030149
:101730006CD131B137F8021BC1602763E08E0138EC
:10174000E086012518F1010031D101E0FFF73CFAF4
:10175000E08E18B9E08F002800F0C0802068816812
:1017600089070CD5E18E51B1012D08D1216B0025DF
:1017700031F8022BC2602163E18E0139E186816874
:10178000C907E3D0E18F0029E0D0C068A16B012533
:1017900021F8020BA163E08F0138E087D6E700BF94
:1017A000FFF712FAA0EB0900404580F0AB80E08E15
:1017B00018B9E08F002800F09180206881688907BF
:1017C0000CD5E18E51B1012D08D1216B002531F8E6
:1017D000022BC2602163E18E0139E1868168C9076D
:1017E000DED0E18F0029DBD0C068A16B012521F894
:1017F000020BA163E08F0138E087D1E702200021CE
:1018000084F8501001B0BDE8F08300BF39B13978D9
:101810000173206B01302063E08E0138E0860125E2
:1018200018F1010032D101E0FFF7CEF9E08E10B9D6
:10183000E08F002852D02068816889070ED5E18E9C
:1018400061B1012D0AD1216B002509780173216B4B
:10185000206801312163E18E0139E1868168C90781
:10186000E2D0E18F0029DFD0C068A16B01250870AC
:10187000A06B0130A063E08F0138E087D4E700BFA0
:10188000FFF7A2F9A0EB090040453BD2E08E08B972
:10189000E08F18B32068816889070ED5E18E61B1A9
:1018A000012D0AD1216B002509780173216B206875
:1018B00001312163E18E0139E1868168C907DFD0FA
:1018C000E18F0029DCD0C068A16B01250870A06BF6
:1018D0000130A063E08F0138E087D1E72046802106
:1018E00042464B4601F0A2F8B0B1606D40F02000D6
:1018F0006065202060650120002184F8501001B04F
:10190000BDE8F083012084F851000320002184F811
:10191000501001B0BDE8F083A06838B900200090F5
:101920002068C1680091806800900098606D002870
:101930004FF0010004BF84F851000020002184F81A
:10194000501001B0BDE8F083411E0020B0EB116FD4
:101950001CBF012070474EF21002CEF2000251600F
:101960004EF62351CEF20001F0230B700721906058
:1019700011607047704700007047000090F83C20ED
:10198000012A4FF0020236D010B580F83D200268DF
:10199000D2F804E0D2F808C00C682EF0700323439C
:1019A00040F2FF74C4F20004A24253600ADCB2F1B8
:1019B000804F13D040F20043C4F200039A420DD08E
:1019C00011E000BF42F60043C4F201039A4205D081
:1019D00040F60003C4F200039A4204D149682CF097
:1019E0008003194391600121002280F83D1080F8A6
:1019F0003C20BDE81040104670470000002804BF9E
:101A00000120704710B5044690F83D0028B9002029
:101A100084F83C00204600F067F8022084F83D007E
:101A2000206840F2FF730268C4F2000342F6004CE3
:101A30009842C4F2010C15DCB0F1804F1AD040F28C
:101A40000041C4F20001884214D0984218DCB0F181
:101A5000804F1DD040F20041C4F20001884217D0EF
:101A60001AE000BF604505D040F60001C4F2000155
:101A70008842EAD1A16822F070020A439842E6DD6A
:101A8000604505D040F60001C4F20001884203D150
:101A9000216922F440720A43A36922F08001D4F83C
:101AA00004E0E268194360450160C262C0F828E0C2
:101AB00002D16169CCF8301001214161002084F825
:101AC000461084F83E1084F83F1084F8401084F8E3
:101AD000411084F8421084F8431084F8441084F8CC
:101AE000451084F83D1010BD006840F60001C4F2B6
:101AF0000001884218BF704780B582B041F21C00D7
:101B0000C4F202000168002241F004010160006893
:101B10000F2100F00400019001981E20FFF7D4F877
:101B20001E2002B0BDE88040FFF7BCB890F83D1021
:101B300001291CBF01207047022180F83D10006878
:101B400040F2FF72C168C4F20002904241F001010C
:101B5000C16009DCB0F1804F12D040F20041C4F204
:101B6000000188420CD012E042F60041C4F20101AB
:101B7000884205D040F60001C4F20001884206D137
:101B8000816801F00701062904BF00207047016841
:101B900041F00101016000207047000090F83C20F6
:101BA000012A4FF0020200F0C58080B580F83D2088
:101BB000D0F800C04FF67772DCF8083023EA020252
:101BC000CCF808200B684F2B28DC1F2B44DD202B82
:101BD00045D0302B43D0402B40F0AE80D1F804E00C
:101BE000C968DCF82030DCF8202022F00102CCF8B3
:101BF0002020DCF8182022F0F00242EA011123F044
:101C00000A0242EA0E02CCF81810CCF82020DCF8C8
:101C1000081041F0470121F0300180E06F2B27DDF3
:101C2000B3F5005F48D0B3F5805F7AD0702B40F0F9
:101C30008380D1E901E3C968DCF8082043EA0E0398
:101C400022F47F4243EA01211143CCF80810DCF86A
:101C5000081041F0770162E00BB1102B6CD1DCF879
:101C6000081021F07001194341F0070157E000BF4F
:101C7000502B35D0602B5FD1D1F804E0C968DCF877
:101C80002030DCF8202022F01002CCF82020DCF8F4
:101C9000182022F4704242EA013123F0A00242EA05
:101CA0000E12CCF81810CCF82020DCF8081041F007
:101CB000670121F0100132E0D1E901E3C968DCF8E5
:101CC000082043EA0E0322F47F4243EA0121114334
:101CD000CCF80810DCF8081041F480411FE000BF88
:101CE000D1F804E0C968DCF82030DCF8202022F0CC
:101CF0000102CCF82020DCF8182022F0F00242EAA1
:101D0000011123F00A0242EA0E02CCF81810CCF8B6
:101D10002020DCF8081041F0570121F02001CCF818
:101D200008100022012180F83D10002180F83C10AD
:101D3000BDE88040104670470122F3E7704700007D
:101D400010B5016804460869800744BFC8685FEAA7
:101D5000807039D40869400744BFC8685FEA4070A2
:101D60003ED40869000744BFC8685FEA007045D4E4
:101D70000869C00644BFC8685FEAC0604AD4086901
:101D8000C0071CBFC8685FEAC07051D1086900066F
:101D900044BFC8685FEA006052D40869400644BF87
:101DA000C8685FEA406053D40869800646BFC868C7
:101DB0005FEA806010BD6FF0200220460A61BDE836
:101DC0001040FFF7D9BD00BF6FF00200086101208D
:101DD00020778869800743D02046FFF7AFFF45E0B2
:101DE0006FF00400086102202077886910F4407FBA
:101DF00040D02046FFF7A2FF42E000BF6FF008008E
:101E0000086104202077C86980073DD02046FFF78D
:101E100095FF3FE06FF01000086108202077C86947
:101E200010F4407F3AD02046FFF788FF3CE000BF27
:101E30006FF001000861204600F03EF82168A5E738
:101E40006FF0800008612046FFF794FD2168A4E749
:101E50006FF040000861204600F052F82168A3E7C7
:101E6000204600F025F8204600F024F821680020E4
:101E700020776FE7204600F01BF8204600F01AF8A4
:101E80002168002020776CE7204600F011F82046FA
:101E900000F010F821680020207769E7204600F064
:101EA00007F8204600F006F821680020207766E752
:101EB0007047000070470000006840F60001C4F25F
:101EC0000001884218BF704710B540F2F804C2F212
:101ED000000420680130B0F57A7F206006D105A0AB
:101EE0004FF47A7100F074FF00202060BDE81040CC
:101EF000704700BF7469636B3D25640A00000000F1
:101F0000704700007047000070470000B0B582B015
:101F1000044600680168C368426901F02F05202D5E
:101F200003F0200506D12DB1204602B0BDE8B04037
:101F300000F066BE5FEA017C1EBF02F0010E03F4F2
:101F4000907212EB0E0243D1226BCD0618D5012AF6
:101F500016D113F0100213D00021019101680191F4
:101F6000416801910199406940063BD4A08DE18D03
:101F7000E28D002A18BF884240F0F28102B0B0BD65
:101F80000A0640F1E78013F0800200F0E38094F845
:101F900041102129F2D1A168B1F5805F03D12169F7
:101FA000002900F06382216A4A1C2262097841609C
:101FB000E18C01390A04E184E0D1C16821F080019B
:101FC000C160C16841F04001C16002B0B0BD00BF56
:101FD000CA0718BF13F4807240F0D0804A0700F19E
:101FE000D380D8E0E06B016849688AB2002AC5D086
:101FF000A38D9A42C2D2E1858069202800F09E809C
:10200000206850E8030F216820F4807041E8030243
:10201000DAB1206850E8030F216820F4807041E8AD
:10202000030292B1206850E8030F216820F4807009
:1020300041E803024AB1206850E8030F216820F408
:10204000807041E80302002ADAD1206850E8050FC9
:10205000216820F0010041E80502C2B3206850E881
:10206000050F216820F0010041E805027AB32068DD
:1020700050E8050F216820F0010041E8050232B365
:10208000206850E8050F216820F0010041E80502B2
:10209000002ADAD11BE000BF206850E8050F216854
:1020A00020F0400041E80502DAB1206850E8050F51
:1020B000216820F0400041E8050292B1206850E814
:1020C000050F216820F0400041E805024AB1206870
:1020D00050E8050F216820F0400041E80502002A81
:1020E000DAD1202084F8420000202063206850E8E4
:1020F000030F216820F0100041E80302DAB12068E4
:1021000050E8030F216820F0100041E8030292B16B
:10211000206850E8030F216820F0100041E8030216
:102120004AB1206850E8030F216820F0100041E810
:102130000302002ADAD1E06BFEF7A6FB02206063FF
:10214000A08DE18D401A81B2204602B0BDE8B040BA
:10215000FFF7D8BE49067FF511AF13F040013FF4F9
:102160000DAFC16821F04001C1602021204684F8F4
:10217000411002B0BDE8B04000F074BB626C42F0A8
:10218000010262644A0706D5BEF1000F03D0626CFB
:1021900042F0020262648A0706D5BEF1000F03D046
:1021A000626C42F004026264BCF1000F06D55EEA84
:1021B000050203D0626C42F008026264626C002A7D
:1021C0003FF4DCAE890604D51DB1204600F018FDB1
:1021D00020684069616C00F0400001F0080140187F
:1021E00000F0B680206850E8030F216820F490705A
:1021F00041E80302BAB3206850E8030F216820F4D5
:10220000907041E8030272B3206850E8030F216820
:1022100020F4907041E803022AB3206850E8030FCD
:10222000216820F4907041E80302002ADAD11AE014
:10223000206850E8050F216820F0010041E8050200
:10224000DAB1206850E8050F216820F0010041E86C
:10225000050292B1206850E8050F216820F00100C6
:1022600041E805024AB1206850E8050F216820F0D6
:10227000010041E80502002ADAD1206B012824D1AF
:10228000206850E8030F216820F0100041E80302A5
:10229000DAB1206850E8030F216820F0100041E80F
:1022A000030292B1206850E8030F216820F010006B
:1022B00041E803024AB1206850E8030F216820F08A
:1022C000100041E80302002ADAD1202084F84200FD
:1022D0000020206320684069400640F1C1802068EA
:1022E00050E8050F216820F0400041E80502DAB10E
:1022F000206850E8050F216820F0400041E8050201
:1023000092B1206850E8050F216820F0400041E8B4
:1023100005024AB1206850E8050F216820F040000E
:1023200041E80502002ADAD1E06B002800F098802D
:1023300042F6F531C0F600014163FEF7C9FA002804
:102340003FF41CAEE06B416B02B0BDE8B040084703
:102350002046FFF7D9FD0020606402B0B0BD00BF89
:10236000401A00BF216851E8031F226821F49071D0
:1023700042E80313BBB3216851E8031F226821F42C
:10238000907142E8031373B3216851E8031F226878
:1023900021F4907142E803132BB3216851E8031F25
:1023A000226821F4907142E80313002BDAD11AE07D
:1023B000216851E8051F226821F0010142E8051358
:1023C000DBB1216851E8051F226821F0010142E8D4
:1023D000051393B1216851E8051F226821F001011E
:1023E00042E805134BB1216851E8051F226821F02E
:1023F000010142E80513002BDAD1202184F84210B4
:1024000000212163216851E8031F226821F0100197
:1024100042E80313DBB1216851E8031F226821F071
:10242000100142E8031393B1216851E8031F2268A9
:1024300021F0100142E803134BB1216851E8031F5A
:10244000226821F0100142E80313002BDAD10222A6
:1024500081B22046626302B0BDE8B040FFF752BDD2
:10246000204602B0BDE8B040FFF74EBD216A31F80A
:10247000022B6FF35F224260216299E5002804BFBE
:102480000120704710B5044690F8410028B900209B
:1024900084F84000204600F063F8242084F84100CE
:1024A0002068D4E90212C36823F40053C3600369AF
:1024B00023F440531A430261D4E904231143C26850
:1024C000194341F20C639A431143C1604169A26907
:1024D00021F44071114343F60002C4F2010290421C
:1024E000416103D0FEF70EFD02E000BFFEF71EFDC6
:1024F000D4E90023192148439900B0FBF1F048F2D8
:102500001F5CC5F2EB1CA0FB0C314FF69C73490914
:10251000C0F6FF7301FB0300322303EB0010A0FBA6
:102520000C03F02000EA531000EB0110C3F3431139
:10253000084490601069202120F490401061506997
:1025400020F02A005061D06840F40050D060002094
:10255000606484F8411084F84210606310BD00008C
:1025600070B586B040F60004C4F201040068A4F51A
:10257000444100268842049602D006B070BD00BFD8
:1025800041F21800C4F20200416802AD41F400318A
:102590004160416801F4003101910199016841F005
:1025A000040101600068294600F0040001900198D0
:1025B0000420029002200390032005902046FEF79D
:1025C000F5F90820CDE90206204629460496FEF7D3
:1025D000EDF9262000210022FEF776FB2620FEF7EB
:1025E00061FB06B070BD0000704700002DE9F043AC
:1025F00081B0044690F84100202840F0B180884620
:1026000000294FF0010000F0D6801646002A00F0A5
:10261000D2800020606421201D4684F84100FEF72E
:10262000D3FAA684E684A1680646B1F5805F03D19B
:102630002069002800F0988047464FF00008E18CA0
:102640002068002900F0968005F101090BE000BF29
:1026500047B317F8011B4160E18C0139E184E18C3B
:10266000002900F0878001680906F1D4B9F1000F54
:102670000AD0EDB1FEF7A8FA801BA84218D820684E
:1026800001680906F6D5E3E701680906E0D40168A8
:1026900009065CBF01685FEA0161D9D401680906D7
:1026A000F2D5D5E738F8021B00276FF35F21D2E798
:1026B000206850E8030F216820F4D07041E803023D
:1026C000BAB3206850E8030F216820F4D07041E8C5
:1026D000030272B3206850E8030F216820F4D07021
:1026E00041E803022AB3206850E8030F216820F470
:1026F000D07041E80302002ADAD11AE0206850E8DD
:10270000050F216820F0010041E80502DAB12068D8
:1027100050E8050F216820F0010041E8050292B160
:10272000206850E8050F216820F0010041E805020B
:102730004AB1206850E8050F216820F0010041E807
:102740000502002ADAD1202084F8410084F84200F2
:10275000002084F84000032001B0BDE8F08300BFF2
:10276000022001B0BDE8F0830027E18C2068002939
:102770007FF46AAF0168490619D4FDB1691C0DD117
:102780000168490613D4016849065CBF01685FEA25
:1027900041610CD401684906F2D508E0FEF714FA4D
:1027A000801BA8420AD8206800684006F6D5202081
:1027B00084F84100002001B0BDE8F083206850E8B3
:1027C000030F216820F4D07041E80302002A3ED0B4
:1027D000206850E8030F216820F4D07041E803021C
:1027E000AAB3206850E8030F216820F4D07041E8B4
:1027F000030262B3206850E8030F216820F4D07010
:1028000041E80302002AD9D121E000BF206850E846
:10281000050F216820F0010041E80502002A3FF47D
:1028200092AF206850E8050F216820F0010041E8D0
:102830000502002A3FF487AF206850E8050F2168A1
:1028400020F0010041E80502002A3FF47CAF206837
:1028500050E8050F216820F0010041E80502002A38
:10286000D4D170E770470000FEE700002DE9F04783
:1028700084B041F21800C4F20200016840F6004A38
:1028800041F0100101600168C4F2010A01F0100179
:102890000091009901680AF5806541F0200101600E
:1028A0000168002201F020010091009901684FF4B5
:1028B000005641F00401016001684FF0000901F089
:1028C000040100910099016841F00801016000686D
:1028D0004FF4005100F00800009000982846FEF7E1
:1028E0006DF950464FF4E05100224FF4E058FEF7E6
:1028F00065F900966E460127022428463146CDE947
:1029000001790394FEF752F850463146CDE900872D
:10291000CDE90294FEF74AF804B0BDE8F087000064
:1029200010B540F2100043F60001C2F20000C4F2FC
:1029300000014FF4827200234FF0010C4FF4007E2F
:10294000382480E80E000A21C0E90333C0E905CE2F
:10295000C461C0E90833C0E90A31FEF7FBFC002876
:1029600008BF10BDBDE81040FDF788BF80B586B038
:1029700040F268000021C2F2000040F6000240F27E
:10298000E73C0591CDE90311CDE90011C4F2000245
:102990002323C0E9021C01618021C0E90023816179
:1029A000FFF72CF8002818BFFDF768FF4FF48050A0
:1029B000029040F26800C2F2000002A9FFF7EEF8B0
:1029C000002818BFFDF75AFF40F26800C2F200006D
:1029D0006946FEF7D3FF002818BFFDF74FFF06B08A
:1029E00080BD000080B540F2B00044F20041C2F268
:1029F0000000C4F2000100234FF00C0C4FF4E13250
:102A000080E80E00C0E90333C0E905C3C361FFF7E6
:102A100035FD002808BF80BDBDE88040FDF72EBF12
:102A2000FEE70000FEE70000704700002DE9F041DE
:102A300082B01E4690460D460446FEF7C5F8301A91
:102A400000EB0807FEF7C0F840F20C01C2F20001EB
:102A50000968C1F3CB317943019121688A682A4022
:102A6000AA4227D1064618F101001FD0FEF7ACF8A4
:102A7000801BB84222D2019801990028A1F10101DE
:102A800001912168896808BF074601EA0500A8424C
:102A9000ECD00FE088682840A8420BD18868284015
:102AA000A84207D188682840A84203D188682840F6
:102AB000A842EFD0002002B0BDE8F081D4E90001C7
:102AC0004268B1F5827F22F0E00242600AD1A1683B
:102AD000B1F5004F02D0B1F5806F03D1016821F04C
:102AE00040010160A16AB1F5005F07D1016821F4DE
:102AF00000510160016841F400510160012084F837
:102B00005100002084F85000032002B0BDE8F0819D
:102B10007047000070B584B001380C2808D8DFE891
:102B200000F007090B0D0F11131507070717190000
:102B3000082010E018200EE028200CE038200AE0E1
:102B4000482008E0582006E0682004E0782002E0F1
:102B5000012000E002208DF80D00512040F60044D5
:102B60008DF80C000020C4F201048DF80B00204603
:102B70004FF480510022FEF721F840F21005C2F216
:102B8000000503A9284601224FF47A734FF47A76A0
:102B9000FEF774FC0DF10B01284601224FF47A7305
:102BA000FEF76CFC0DF10D01284601224FF47A73FB
:102BB000FEF764FC9DF80C000DF10F018DF80F007D
:102BC0000DF10E02284601230096FEF753FD204624
:102BD0004FF480510122FDF7F1FF04B070BD0000F9
:102BE000FDF7F8BF7047000040F26800C2F2000035
:102BF000FFF7A6B8406A0021C185C184FFF784B9F8
:102C000081B090F84210222921D183680246B3F5A1
:102C1000805F09D152F8281F52F8183C002B63D06E
:102C200003685B680AE000BF52F8281F13B9036904
:102C3000002BF5D003685B6803F07F030B7011680D
:102C400001311160C18D01390A04C18502D001B082
:102C5000704700BF0168CA6822F02002CA60CA68D3
:102C600022F48072CA604A6922F001024A6120217E
:102C700080F8421000214163026B012A3CD10163BC
:102C8000016851E8031F026821F0100142E80313B4
:102C9000DBB1016851E8031F026821F0100142E82E
:102CA000031393B1016851E8031F026821F010017A
:102CB00042E803134BB1016851E8031F026821F099
:102CC000100142E80313002BDAD101680A68D2062A
:102CD00006D5002200920A68009249680091009986
:102CE000818D01B0FFF70EB9026852686FF35F2261
:102CF00021F8022B8162A5E701B0FFF775BC000047
:102D000040F2B000C2F20000FFF700B9FEE7000099
:102D100080B582B0019040F2B000C2F2000001A97B
:102D200001224FF47A73FFF761FC019802B080BD75
:102D300090B0FDF75DFF00240120CDE90B44CDE903
:102D4000094406900A904FF4E0104FF480310225B8
:102D50000F9006A8CDE90714CDE90D51FEF7FAF85A
:102D600020B1EFF3108072B6FEE700BF0F20CDE96F
:102D700001058020CDE9030401A802210594FDF797
:102D8000DFFF28B1EFF3108072B600BFFEE700BF8F
:102D9000FFF76CFDFFF7C4FDFFF724FEFFF7E6FD2C
:102DA00040F26800C2F20000FEF7C0FE05A000F08D
:102DB00089FC0020A1210C22FDF75AFC0120FDF71F
:102DC000E1FDFBE768656C6C6F2078776A21000095
:102DD0000FB4054B10B503A9044A029800F0DAF8C5
:102DE00010BC5DF814FB0000112D0008000000204D
:102DF00002E008C8121F08C1002AFAD170477047C4
:102E0000002001E001C1121F002AFBD17047000021
:102E10002DE9FF5F82B00021DDE90430020DDDF80D
:102E200040B0034318D044F61050A2F2FF324243A0
:102E30001514119801281FD0A5EB0B00401C5FEA68
:102E4000000A4FF000064E4FDFF83891B04650466A
:102E500015D5CAF1000413E0119801244AA30128F2
:102E600001D16FEA0B010298119AC0E90031C0E963
:102E7000024206B0BDE8F09FCBF10000DFE7044658
:102E80000021404A491842EB0450CDE9001012E0FD
:102E9000E00707D032463B4640464946FDF7FCFA7C
:102EA0008046894632463B4610461946FDF7F4FAFD
:102EB00006460F466410002CEAD1DDE90401DDE985
:102EC0000023BAF1000F06DAFDF7E6FA42464B4658
:102ED000FDF7E2FA05E0FDF725F942464B46FDF71E
:102EE00021F904460E460022284BFDF75FFB03D86C
:102EF0004FF0FF30014607E00022254B20463146C7
:102F0000FDF723FAFDF73AFB102409E0002C0ADB59
:102F10000A220023FDF78BF9039B30321A55641EF9
:102F200050EA0102F2D1641C039AC4F11103144463
:102F3000119A012A03D0012208430DD10AE0084367
:102F400004D000204FF0110B119072E7A3EB0B059A
:102F50006D1E0DE05B4504DD4FF0000205F101053B
:102F600004E003DA4FF00002A5F10105002AECD0DD
:102F700002981199C0E90231C0E9004579E70000E3
:102F8000000014400000F03F300000000000F0435B
:102F90000000E03F2DE9FF4F95B09B46894606466D
:102FA00000250FE2252877D100242746F84A012181
:102FB000059400E0044316F8013F203B01FA03F0BA
:102FC0001042F7D130782A2811D06FF02F033078D3
:102FD000A0F13002092A16D8059A44F0020402EB47
:102FE000820203EB42021044761C0590EFE759F889
:102FF000042B0592002A03DA504244F40054059051
:1030000044F00204761C30782E2816D116F8010FF1
:1030100044F004042A280DD06FF02F023078A0F17C
:103020003003092B09D807EB870302EB4303C718CA
:10303000761CF3E759F8047B761C30786C280FD0A7
:1030400006DC4C2817D068280DD06A2814D104E07B
:10305000742810D07A280FD10DE044F400140AE04F
:1030600044F4801401E044F440147278824202D1A6
:1030700004F58014761C761C307866280BD013DC9F
:10308000582877D009DC002875D04528F6D0462886
:10309000F4D047281AD19DE118E0632835D0642880
:1030A00079D0652812D195E1702873D008DC6728A3
:1030B000F1D069286FD06E280DD06F2806D1B5E009
:1030C00073282CD0752875D0782874D05A46179953
:1030D00090476D1C75E1C4F30250022809D0032803
:1030E0000DD0D9F8001004280DD00D6009F10409A5
:1030F00067E1D9F80010EA17C1E90052F6E7D9F8FC
:1031000000100D80F2E70D70F0E719F8041B8DF840
:10311000001000208DF80100EA46012003E059F874
:1031200004AB4FF0FF3061074FF0000102D40DE017
:1031300008F101018846B9420FDA8045F8DB1AF838
:1031400008100029F4D108E008F101018846814205
:10315000FADB1AF808100029F6D105985B46A0EBB7
:10316000080721463846179A00F094FA284400EBE5
:10317000080507E04DE029E10DE01AF8010B5A4679
:1031800017999047B8F10108F7D25B4621463846B7
:10319000179A13E142E00A220092C4F302524FF060
:1031A000000A022A08D059F804CB032A4FEAEC712E
:1031B0000AD00DE029E02AE009F1070121F0070219
:1031C000F2E802C1914609E00FFA8CFC4FEAEC717B
:1031D000042A03D14FFA8CFC4FEAEC71002907DA7C
:1031E0000A460021DCF1000C61EB02012D2202E015
:1031F000220504D52B228DF80420012203E0E207EA
:1032000001D02022F7E7904659E00A2102E010227F
:103210000DE010214FF0000A00910BE010224FF05A
:10322000000A44F004040827009203E008224FF04B
:10323000000A0092C4F30252022A05D059F804CBC6
:103240000021032A08D009E009F1070121F0070253
:10325000F2E802C1914605E01FFA8CFC042A01D174
:103260000CF0FF0C4FF00008220728D5702806D07C
:10327000009B83F0100353EA0A0305D00EE04022BE
:103280008DF80420012208E05CEA010206D0302219
:103290008DF804208DF8050002229046009B83F0F3
:1032A000080353EA0A030AD15CEA010201D162076A
:1032B00005D530228DF804204FF001087F1E5828D4
:1032C00004D034A003900EA802900DE036A0F9E7D8
:1032D00053466046009AFCF7AAFF84460398825C36
:1032E0000298401E029002705CEA0100F0D1029840
:1032F00006A9081A00F1200A600702D524F48034D8
:1033000000E00127574502DDA7EB0A0000E000209E
:1033100000EB0A01009005984144401A0590E00333
:1033200006D45B462146179A059800F0B3F9054488
:10333000002706E001A85A46C05D179990476D1C0A
:103340007F1C4745F6DBE0030CD55B462146179A08
:10335000059800F09FF9054404E030205A4617997B
:1033600090476D1C0099481E00900029F5DC08E08C
:10337000029802995A460078491C02911799904781
:103380006D1CBAF10001AAF1010AF1DC65E100004F
:10339000092801003031323334353637383961622B
:1033A00063646566000000003031323334353637EF
:1033B00038394142434445460000000000F058F9C6
:1033C0000544761C307800287FF4ECAD19B028460F
:1033D000BDE8F08F620700D4062709F1070222F04A
:1033E000070CFCE80223E14603F000485FEA080C02
:1033F00002D00FF2702C0DE05FEA045C02D50FF2F0
:10340000682C07E05FEAC47C02D00FF2602C01E078
:10341000AFF2700C4FF0FF3823F00043CDF850C0EE
:1034200065280CD006DC452809D046281DD0472841
:103430003DD13DE0662818D067287ED138E00021D4
:10344000112F01DB112000E0781CCDE9000106A955
:103450000EA8FFF7DDFCDDE90F010E9A03910021B4
:10346000009207F1010A04914DE04FF000400097EF
:10347000CDE9011006A90EA8FFF7CAFCDDE90F028D
:1034800003920E9B11990022DDF80CA00093049288
:1034900011B9791C00EB010AB7EB0A0004D4C0F1A2
:1034A000FF3007F1010A0490AAEB0700019044E005
:1034B000012F00DA01270021112F01DD112000E08A
:1034C0003846CDE9000106A90EA8FFF7A1FCDDE909
:1034D0000F010E9A0391002104910092BA46210730
:1034E0000CD40399514500DA8A46BAF1010F05DD83
:1034F000009AAAF10101515C302908D0B84202DAE1
:1035000010F1040F06DA0121CDE9011015E0AAF14E
:103510000101E9E7002805DC049901440491AAEBC4
:10352000000102E0411C514500DD8A460499401A21
:10353000401C01904FF000400290200704D40198F5
:10354000504501DBCDF8048000208DF84F00029833
:103550000DF14F07B0F1004F25D02B200E900298AF
:103560004FF0020800280CDA404202902D200E9005
:1035700007E00A210298FCF744FE3031029007F878
:10358000011DB8F10001A8F10108F2DC0298002841
:10359000EFD1791E0E980870307800F0200040F0CE
:1035A000450007F8020D12A8C01B00F10708149887
:1035B000007800B1012000EB0A01019801EBE071F5
:1035C00005984144401A401E0590E00306D45B462E
:1035D0002146179A059800F05DF805441498007884
:1035E00018B15A46179990476D1CE00324D55B46E5
:1035F0002146179A059800F04DF805441CE0049800
:10360000002807DBDDE90301884203DD0098405C08
:10361000179901E0179930205A469047049805F110
:103620000105401C04900198401E019004D12E20F9
:103630005A46179990476D1CBAF10001AAF1010A88
:10364000DDDC05E017F8010B5A46179990476D1C11
:10365000B8F10001A8F10108F4DC5B462146179A95
:103660000598ABE62D0000002B00000020000000B4
:103670002DE9F041044600251E461746880404D46F
:1036800005E039462020B0476D1C641EF9D5284658
:10369000BDE8F0812DE9F041044600251E46904624
:1036A000C80301D5302700E02027880404D505E0B1
:1036B00041463846B0476D1C641EF9D52846BDE822
:1036C000F081000010B5044601E0FFF721FB14F87B
:1036D000010B04490028F8D1BDE810400A20FFF78B
:1036E00017BB0000000000200000000000000000E8
:1036F0000102030406070809000000000102030498
:10370000010202030405060708090A0B0C0D0E0F3F
:1037100010100000383700080000002010000000E2
:10372000F02D00084837000810000020F0040000C9
:10373000002E000800000000000000000100000052
:08374000100000000024F40059
:04000005080000ED02
:00000001FF
